:100000000C941F150C944A150C944A150C944A151F
:100010000C944A150C944A150C944A150C944A15E4
:100020000C944A150C944A150C9488DB0C9401DA54
:100030000C944A150C944A150C944A150C944A15C4
:100040000C944A150C9487510C944A150C944A153B
:100050000C944A150C944A150C94D6500C94C4D8A0
:100060000C944A150C944A150C944A150C944A1594
:100070000C944A150C944A150C944A150C944A1584
:100080000C9487DD0C94EDDD0C9453DE0C944A1532
:100090000C944A150C944A155FB28DB2BBB2ADB345
:1000A000D6C1D6C1D6C1D6C1D6C1D6C1D6C1D6C198
:1000B000D6C1EAB229B36AB3D6C1D6C1D6C1D6C1B8
:1000C000D6C1D6C1D6C1D6C1D6C1D6C1D6C108B651
:1000D00069B6CAB62BB78CB7EDB74EB8D6C1D7BC88
:1000E000D2B84AB9C2B937BAABBA1FBB93BBFFBBD0
:1000F0006BBCD6C1D6C1D6C1D6C1D6C1D6B43EB569
:10010000D6C12EBDA2BD11BE87BEAFBE05BF42BFC8
:100110007FBFDEBF3FC09EC0FDC029C1D7BED6C1D4
:10012000D6C1D6C1D6C1D6C1D6C1D6C1D6C1D6C117
:10013000D6C1D6C1D6C1D6C19FB4D6C1D6C1D6C14B
:10014000D6C1D6C1D6C1D6C1D6C1D6C1D6C1FDB4DD
:10015000D6C1D6C1D6C162C19FC1D6C1D6C1D6C192
:10016000D6C151B2D6C1D6C1F0B329B476B4A3B5C5
:10017000084AD73B3BCE016E84BCBFFDC12F3D6C0E
:1001800074319ABD56833DDA3D00C77F11BED9E474
:10019000BB4C3E916BAAAABE000000803F05A84C54
:1001A000CDB2D44EB93836A9020C50B99186880820
:1001B0003CA6AAAA2ABE000000803F000001001C45
:1001C000001D001300FFFF1A001E001F001200FF99
:1001D000FF1B00200021001100FFFF2400FFFFFF94
:1001E000FF0F000E001000220023000D0007000684
:1001F000002600536574204D6963726F73746570D7
:1002000070696E670048656174696E67204578742F
:100210007275646572004649524D574152455F4EB2
:10022000414D453A52657065746965725F302E398B
:1002300031204649524D574152455F55524C3A681C
:10024000747470733A2F2F6769746875622E636FC8
:100250006D2F72657065746965722F526570657473
:100260006965722D4669726D776172652F205052F3
:100270004F544F434F4C5F56455253494F4E3A31BE
:100280002E30204D414348494E455F545950453A20
:1002900044656C74612045585452554445525F433F
:1002A0004F554E543A312052455045544945525FBE
:1002B00050524F544F434F4C3A3200446562756779
:1002C0003A006F6B000D0A004E414E00494E460049
:1002D0004572726F723A00496E666F3A00576172EA
:1002E0006E696E673A00526573656E643A004563E5
:1002F000686F3A006F6B200057726F6E67206368FB
:1003000065636B73756D004D697373696E67206308
:100310006865636B73756D00466F726D61742065FF
:1003200072726F7200446F6E65207072696E7469CC
:100330006E672066696C6500205800205900205ABD
:100340000020450020460020530020500020490096
:10035000204A002052005344207265616420657277
:10036000726F72004572726F723A6578706563746D
:100370006564206C696E65200020676F74200073CF
:100380006B69702000424C4B2000737461727400E2
:10039000506F77657255700045787465726E616C48
:1003A0002052657365740042726F776E206F7574AA
:1003B000205265736574005761746368646F6720C9
:1003C000526573657400536F66747761726520526D
:1003D0006573657400556E6B6E6F776E20636F6D1D
:1003E0006D616E643A00467265652052414D3A0077
:1003F000583A0020583A0020593A00205A3A002032
:10040000453A00543A0020423A0020403A00205435
:10041000002040002042403A0020524157003A005C
:100420002F00202F0053706565644D756C746970E2
:100430006C793A00466C6F774D756C7469706C79A5
:100440003A0046616E73706565643A005072696E79
:100450007465642066696C616D656E743A005072F3
:10046000696E74696E672074696D653A006D20006D
:100470002064617973200020686F757273200020FA
:100480006D696E00496E76616C696420617263000B
:100490002C002000593A005A3A0045303A004531C4
:1004A0003A004D53312C4D53322050696E73005336
:1004B0006574206F7574707574200020746F20004F
:1004C0004820004C2000785F6D696E3A00785F6DBF
:1004D00061783A00795F6D696E3A00795F6D617895
:1004E0003A007A5F6D696E3A007A5F6D61783A0022
:1004F0004A65726B3A00205A4A65726B3A00206C6A
:10050000696E6561722073746570733A002071754D
:10051000616472617469632073746570733A002C4E
:100520002073706565643D00454550524F4D207500
:10053000706461746564006C696E656172204C3A28
:100540000020717561647261746963204B3A004DDB
:100550006561737572656D656E742072657365741F
:100560002E004D6561737572652F64656C74612032
:1005700028537465707329203D004D656173757251
:10058000652F64656C7461203D004D656173757203
:100590006564206F726967696E207365742E204DE3
:1005A0006561737572656D656E74207265736574CF
:1005B0002E004F726967696E206D65617375726593
:1005C0006D656E742063616E6E6F7420626520735A
:1005D00065742E2020557365206F6E6C79205A2D1E
:1005E00043617274657369616E2028737472616906
:1005F00067687420757020616E6420646F776E295F
:10060000206D6F76656D656E747320616E64207405
:10061000727920616761696E2E00496E76616C693E
:10062000642064656C746120636F6F7264696E61CD
:100630007465202D206D6F76652069676E6F726519
:1006400064004C6576656C696E672063616C633A23
:1006500000546F77657220313A00546F77657220CD
:10066000323A00546F77657220333A00416C7068FB
:1006700061204128323130293A00416C7068612094
:100680004228333330293A00416C70686120432896
:100690003930293A0044656C74612052616469758F
:1006A0007320412830293A0044656C7461205261FE
:1006B0006469757320422830293A0044656C74617E
:1006C0002052616469757320432830293A004E6FC7
:1006D000206D6F766520696E2064656C746120738F
:1006E00065676D656E742077697468203E203120DF
:1006F0007365676D656E742E205468697320736826
:100700006F756C64206E65766572206861707065C7
:100710006E20616E64206D61792063617573652060
:10072000612070726F626C656D2100546172676543
:100730007445787472005461726765744265643AF6
:1007400000504944204175746F74756E6520737450
:100750006172740020626961733A200020643A205B
:1007600000206D696E3A2000206D61783A200020EB
:100770004B753A20002054753A200020436C617379
:100780007369632050494400204B703A2000204B8D
:10079000693A2000204B643A2000504944204175BA
:1007A000746F74756E65206661696C656421205490
:1007B000656D706572617475726520746F2068690B
:1007C000676800504944204175746F74756E6520E8
:1007D0006661696C6564212074696D656F7574006C
:1007E000504944204175746F74756E652066696E5A
:1007F0006973686564202120506C616365207468AA
:1008000065204B702C204B6920616E64204B642066
:10081000636F6E7374616E747320696E20746865A3
:1008200020436F6E66696775726174696F6E2E68BA
:10083000206F7220454550524F4D004D54454D504C
:100840003A00686561746564206265640065787467
:10085000727564657220003A2074656D702073654E
:100860006E736F7220646566656374003A20776FFB
:10087000726B696E67005072696E74657220736581
:100880007420696E746F206472792072756E206DA9
:100890006F646520756E74696C2072657374617223
:1008A0007421005A2D70726F62653A005A2D707271
:1008B0006F6265206176657261676520686569674A
:1008C00068743A005265736574205A2068656967D8
:1008D0006874005A2D70726F62652073746174655C
:1008E0003A000000486974207A2D70726F626500CA
:1008F0004175746F6C6576656C206D617472697892
:10090000207265736574004175746F6C6576656CF3
:10091000696E6720656E61626C6564004175746F15
:100920006C6576656C696E672064697361626C657D
:1009300064005A2D70726F6265206661696C65642F
:10094000005A2D70726F6265206D61783A005072A6
:10095000696E746572206865696768743A007761CA
:100960006974005A2D70726F6265206865696768E6
:1009700074205B6D6D5D004D61782E207A2D707254
:100980006F6265202D2062656420646973742E2077
:100990005B6D6D5D005A2D70726F6265206F6666CB
:1009A0007365742078205B6D6D5D005A2D70726FD9
:1009B0006265206F66667365742079205B6D6D5D7E
:1009C000005A2D70726F6265207370656564205BDC
:1009D0006D6D2F735D005A2D70726F626520782DDA
:1009E000792D7370656564205B6D6D2F735D005AA2
:1009F0002D70726F6265205831005A2D70726F62CF
:100A000065205931005A2D70726F6265205832008E
:100A10005A2D70726F6265205932005A2D70726FB4
:100A20006265205833005A2D70726F626520593309
:100A300000436F6E66696775726174696F6E2073CB
:100A4000746F72656420746F20454550524F4D2E6F
:100A500000436F6E66696775726174696F6E206CB2
:100A60006F616465642066726F6D20454550524F1A
:100A70004D2E00436F6E66696775726174696F6EA3
:100A800020726573657420746F2064656661756C8F
:100A900074732E0050726F746F636F6C2076657282
:100AA00073696F6E206368616E6765642C20757072
:100AB00067726164696E6700457874722E004550F4
:100AC000523A3020004550523A3120004550523AB7
:100AD0003220004550523A33200042617564726101
:100AE00074650046696C616D656E74207072696E24
:100AF000746564205B6D5D005072696E7465722070
:100B0000616374697665205B735D004D61782E20AA
:100B1000696E6163746976652074696D65205B6DCB
:100B2000732C303D6F66665D0053746F7020737474
:100B3000657070657220616674657220696E6163AC
:100B4000746976697479205B6D732C303D6F6666CD
:100B50005D005820686F6D6520706F73205B6D6D50
:100B60005D005920686F6D6520706F73205B6D6D3F
:100B70005D005A20686F6D6520706F73205B6D6D2E
:100B80005D0058206D6178206C656E677468205B2D
:100B90006D6D5D0059206D6178206C656E677468BD
:100BA000205B6D6D5D005A206D6178206C656E670D
:100BB0007468205B6D6D5D0058206261636B6C61D1
:100BC0007368205B6D6D5D0059206261636B6C61C1
:100BD0007368205B6D6D5D005A206261636B6C61B0
:100BE0007368205B6D6D5D004D61782E206A6572C3
:100BF0006B205B6D6D2F735D00416363656C657287
:100C00006174696F6E205B6D6D2F735E325D005491
:100C1000726176656C20616363656C65726174698D
:100C20006F6E205B6D6D2F735E325D005374657067
:100C30007320706572206D6D004D61782E206665A1
:100C4000656472617465205B6D6D2F735D00486F24
:100C50006D696E67206665656472617465205B6DA1
:100C60006D2F735D00446961676F6E616C20726FF8
:100C700064206C656E677468205B6D6D5D00486F05
:100C800072697A6F6E74616C207261646975732029
:100C90005B6D6D5D005365676D656E74732F7320BA
:100CA000666F72207072696E74696E670053656753
:100CB0006D656E74732F7320666F72207472617627
:100CC000656C00546F776572205820656E6473748C
:100CD0006F70206F6666736574205B7374657073E4
:100CE0005D00546F776572205920656E6473746F70
:100CF00070206F6666736574205B73746570735DD6
:100D000000546F776572205A20656E6473746F703B
:100D1000206F6666736574205B73746570735D0025
:100D20004D61782E20726164697573205B6D6D5D15
:100D300000436F72722E20646961676F6E616C2070
:100D400041205B6D6D5D00436F72722E206469619E
:100D5000676F6E616C2042205B6D6D5D00436F724A
:100D6000722E20646961676F6E616C2043205B6D39
:100D70006D5D004F5053206F7065726174696F6EC6
:100D8000206D6F6465205B303D4F66662C313D43BE
:100D90006C61737369632C323D466173745D004FFF
:100DA0005053206D6F7665206166746572207825DA
:100DB0002072657472616374205B255D004F50532F
:100DC000206D696E2E2064697374616E63652066A0
:100DD0006F722066696C2E2072657472616374692B
:100DE0006F6E205B6D6D5D004F50532072657472A5
:100DF000616374696F6E206C656E677468205B6DEB
:100E00006D5D004F50532072657472616374696F39
:100E10006E206261636B6C617368205B6D6D5D0059
:100E20004265642048656174204D616E616765723A
:100E3000205B302D335D00426564205049442064BE
:100E400072697665206D617800426564205049447E
:100E5000206472697665206D696E00426564205079
:100E6000494420502D6761696E00426564205049F5
:100E70004420492D6761696E0042656420504944F1
:100E800020442D6761696E0042656420504944200A
:100E90006D61782076616C7565205B302D3235355B
:100EA0005D00737465707320706572206D6D006DE8
:100EB00061782E206665656472617465205B6D6D76
:100EC0002F735D007374617274206665656472616E
:100ED0007465205B6D6D2F735D00616363656C6588
:100EE000726174696F6E205B6D6D2F735E325D0091
:100EF00068656174206D616E61676572205B302D7D
:100F0000335D00504944206472697665206D6178D4
:100F100000504944206472697665206D696E005006
:100F2000494420502D6761696E2F646561642D749A
:100F3000696D650050494420492D6761696E005014
:100F4000494420442D6761696E00504944206D6119
:100F5000782076616C7565205B302D3235355D000B
:100F6000582D6F6666736574205B73746570735D6E
:100F700000592D6F6666736574205B7374657073BA
:100F80005D0074656D702E2073746162696C697A9E
:100F9000652074696D65205B735D0074656D702EEE
:100FA00020666F722072657472616374696F6E205F
:100FB0007768656E2068656174696E67205B435D64
:100FC0000064697374616E636520746F2072657468
:100FD00072616374207768656E2068656174696EFC
:100FE00067205B6D6D5D0065787472756465722055
:100FF000636F6F6C6572207370656564205B302D64
:101000003235355D00616476616E6365204B205B2F
:10101000303D6F66665D00616476616E6365204C8D
:10102000205B303D6F66665D00534420436172640F
:101030002072656D6F76656400534420436172646D
:1010400020696E73657274656400534420696E692B
:1010500074206661696C006572726F7220777269C4
:1010600074696E6720746F2066696C6500426567FD
:10107000696E2066696C65206C69737400456E64E6
:101080002066696C65206C6973740046696C652024
:101090006F70656E65643A002053697A653A004660
:1010A000696C652073656C65637465640066696C62
:1010B000652E6F70656E206661696C6564005344CF
:1010C000207072696E74696E6720627974652000A1
:1010D0004E6F74205344207072696E74696E67009D
:1010E0006F70656E206661696C65642C2046696C62
:1010F000653A200057726974696E6720746F2066C4
:10110000696C653A2000446F6E6520736176696E84
:10111000672066696C652E0046696C652064656CA5
:10112000657465640044656C6574696F6E20666102
:10113000696C6564004469726563746F72792063D9
:10114000726561746564004372656174696F6E20D5
:101150006661696C6564005344206572726F724306
:101160006F64653A00071C151C140000002243142C
:101170001F1F8C11FC115012C01200000000000053
:1011800010139813A414F414701500000000A00F9D
:101190005C006009690010097900C0088C007008C3
:1011A000A2002008BD00D007DE008007050130073F
:1011B0003401E0066D019006B20140060702F00519
:1011C0006D02A005E80250057B0300052B04B00466
:1011D000F8046004EB06C003350920037F0B80028E
:1011E000650DE001B00E40011D0FF000480FC80072
:1011F0006C0FA000ED0F60FFFE0F48FE0400801A88
:10120000D8009808AC012007800250065403C80596
:1012100028045805FC040005D005B004A4066804A1
:10122000780728044C08E8032009B003F409700388
:10123000C80A38039C0BF802700CB002440D680217
:10124000180E0802EC0E8801C00F8800F00F000095
:101250000400001B54006009640010097400C008F9
:10126000840070089C002008B800D007D8008007D0
:10127000000130072C01E00668019006AC01400631
:101280000002F0056802A005E002500574030005A5
:101290002404B004F0046004DC051004E406C00378
:1012A0000408700330092003780B8002600DE00110
:1012B000A80E4001680FA000C00F0000E80F60FFFB
:1012C0000400700DD8004804AC0158038002D80215
:1012D0005403800228043802FC040002D005C8012F
:1012E000A4069801780770014C08480120091801EC
:1012F000F409F000C80AC8009C0BA000700C700034
:10130000440D3800180E0000EC0EA8FFC00FE8FED8
:101310000000401F450060094F0010095C00C00834
:101320006B0070087D0020089200D007AC00800799
:10133000CC003007DE00E006230190065E01400687
:10134000A601F005FF01A0056D025005F30200059E
:101350009603B0045A046004400510044806C00314
:101360006E077003A8082003EB09D002230B80024C
:10137000410C3002390DE001040E9001A20E400133
:10138000170FF000690FA000A20F5000C60F000059
:10139000DD0FB0FFEB0F60FF0400681D4C00500B29
:1013A00094005809DC0050082401A8076C012807A4
:1013B000B401C006FC017006440228068C02F00548
:1013C000D402B8051C03880564035805AC03300536
:1013D000F40310053C04E8048404C804CC04A80405
:1013E000140590045C057004A4055804EC05380449
:1013F000340620047C060804C406F0030C07D80356
:101400005407C8039C07B003E40798032C08800323
:1014100074087003BC085803040948034C093003DE
:1014200094091803DC090803240AF0026C0AE0029C
:10143000B40AC802FC0AB002440BA0028C0B88025A
:10144000D40B70021C0C5802640C4002AC0C280235
:10145000F40C10023C0DF001840DD801CC0DB80144
:10146000140E98015C0E7001A40E4801EC0E1801D8
:10147000340FD8007C0F8800C40F0800FC0F000058
:10148000000000000000000000000000000000005C
:10149000000000000000000000000000000000004C
:1014A0000000000004000016D800C006AC0178055A
:1014B0008002C004540348042804E803FC04980391
:1014C000D0055003A40618037807D8024C08A802D8
:1014D00020097002F4093802C80A08029C0BD001E6
:1014E000700C9001440D5001180EF800EC0E8800AD
:1014F000C00F00000400401D900060091C01B007EF
:10150000A801D00634023806C002C8054C0368059D
:10151000D80318056404D804F00498047C0560041A
:1015200008063004940600042007D003AC07A80383
:1015300038088003C408580350093003DC09080345
:10154000680AE002F40AB802800B88020C0C600200
:10155000980C3002240DF801B00DC0013C0E800142
:10156000C80E3001540FB800B40F2800E00F00007F
:101570000400081D900058091C01B007A801C80606
:1015800034023006C002C0054C036805D8031805B4
:101590006404D004F00498047C0560040806300458
:1015A000940600042007D003AC07A8033808800382
:1015B000C408580350093003DC090803680AD8023C
:1015C000F40AB002800B88020C0C6002980C300206
:1015D000240DF801B00DC0013C0E8001C80E300191
:1015E000540FB800B40F2800E00F000053442065EA
:1015F00072726F7220666978656400534420657268
:10160000726F7220646964206E6F74207265636FFC
:1016100076657221005344205265616420457272E0
:101620006F720042696E6172793A00436F6D6D614D
:101630006E6442756666657200000000000000007E
:1016400000000000000000000024F403D950C38E05
:10165000B1C2A23D96828B3582127AE372816CCB45
:1016600066A861015DC758EB546151204E1E4B5670
:1016700048C14559431A41013F093D2F3B7139CDBE
:10168000374036C93465331432D430A32F802E6BE3
:101690002D632C672B752A8E29B028DC2710274B49
:1016A000268F25D9242B248223E0224322AC211A21
:1016B000218D200420801F001F841E0C1E971D26D4
:1016C0001DB81C4E1CE61B821B201BC11A641A0A83
:1016D0001AB2195D190A19B9186A181C18D1178895
:1016E000174017FA16B51673163116F115B315769D
:1016F000153A150015C7148F1458142214EE13BA96
:1017000013881356132513F612C71299126C124040
:10171000121512EB11C1119811701148112111FB12
:1017200010D610B1108D106910461024100210E16F
:101730000FC00FA00F800F610F420F230F060FE89D
:101740000ECB0EAF0E930E770E5C0E410E270E0DD4
:101750000EF30DDA0DC10DA80D900D780D600D4939
:101760000D320D1B0D050DEF0CD90CC30CAE0C99F1
:101770000C850C700C5C0C480C350C210C0E0CFB11
:101780000BE80BD60BC40BB20BA00B8E0B7D0B6BB7
:101790000B5A0B4A0B390B290B180B080BF80AE9EB
:1017A0000AD90ACA0ABB0AAC0A9D0A8E0A800A71C3
:1017B0000A630A550A470A390A2C0A1E0A110A0442
:1017C0000AF709EA09DD09D009C409B709AB099F7D
:1017D00009920987097B096F09630958094C094176
:1017E0000936092B09200915090A090009F508EB32
:1017F00008E008D608CC08C208B808AE08A4089AC1
:1018000008900887087D0874086B08610858084F1D
:101810000846083D0834082C0823081A081208094D
:10182000080108F807F007E807E007D807D007C85D
:1018300007C007B807B007A807A1070000420FA11B
:10184000071605D0030D038B022E02E801B20186B4
:1018500001630145012C0117010401F40049646C86
:10186000650049646C650049646C6500486F6D658E
:101870002044656C74610053746570706572204417
:10188000697361626C6564004B696C6C65640055DA
:10189000706C6F6164696E672E2E2E005344207049
:1018A00072696E742073746F707065642062792041
:1018B000757365722E000000211042206330844051
:1018C000A550C660E770088129914AA16BB18CC10F
:1018D000ADD1CEE1EFF13112100273325222B55286
:1018E0009442F772D662399318837BB35AA3BDD35F
:1018F0009CC3FFF3DEE36224433420040114E66456
:10190000C774A44485546AA54BB528850995EEE5AE
:10191000CFF5ACC58DD55336722611163006D77665
:10192000F6669556B4465BB77AA719973887DFF7FE
:10193000FEE79DD7BCC7C448E5588668A77840082D
:10194000611802282338CCC9EDD98EE9AFF948894E
:1019500069990AA92BB9F55AD44AB77A966A711AC5
:10196000500A333A122AFDDBDCCBBFFB9EEB799B9E
:10197000588B3BBB1AABA66C877CE44CC55C222C15
:10198000033C600C411CAEED8FFDECCDCDDD2AADEE
:101990000BBD688D499D977EB66ED55EF44E133EA5
:1019A000322E511E700E9FFFBEEFDDDFFCCF1BBF3E
:1019B0003AAF599F788F8891A981CAB1EBA10CD118
:1019C0002DC14EF16FE18010A100C230E320045020
:1019D000254046706760B9839893FBA3DAB33DC393
:1019E0001CD37FE35EF3B1029012F322D232354270
:1019F000145277625672EAB5CBA5A89589856EF523
:101A00004FE52CD50DC5E234C324A01481046674BF
:101A1000476424540544DBA7FAB79987B8975FE772
:101A20007EF71DC73CD7D326F2369106B01657660F
:101A30007676154634564CD96DC90EF92FE9C899FA
:101A4000E9898AB9ABA94458654806782768C0185F
:101A5000E1088238A3287DCB5CDB3FEB1EFBF98BD2
:101A6000D89BBBAB9ABB754A545A376A167AF10AAF
:101A7000D01AB32A923A2EFD0FED6CDD4DCDAABDE2
:101A80008BADE89DC98D267C076C645C454CA23CFF
:101A9000832CE01CC10C1FEF3EFF5DCF7CDF9BAFB2
:101AA000BABFD98FF89F176E367E554E745E932E4F
:101AB000B23ED10EF01E7C3C3E5E2B3D3F2F5B5D67
:101AC0003B2C2A225C004E6F206572726F7220667A
:101AD0006F756E642E0043616E2774206F70656EA3
:101AE00020726F6F74206469726563746F72792EEF
:101AF00000496E76616C696420666F726D61742C4A
:101B0000207265666F726D61742053442E004E6FB3
:101B100020636172642C2077726F6E67206368693E
:101B2000702073656C6563742070696E2C206F7211
:101B3000205350492070726F626C656D3F004361A5
:101B40006E2774206163636573732053442063615F
:101B500072642E20446F206E6F74207265666F72FF
:101B60006D61742E00000000000000000000000005
:101B7000FF00000100416374696F6E3A256C6100DB
:101B80000310270200701D0310270200741D0100BE
:101B9000000100781D02000008007A1D03ED030417
:101BA000008A1D03EE030400921D03EF0304009A54
:101BB0001D03FA030400A21D03FB030400AA1D0376
:101BC000FC030400B21D0200000A00BA1D0200005E
:101BD0000500CE1D0200000900D81D526571756513
:101BE000737450617573653A004E6F2053442043FF
:101BF00061726400436F6F6C646F776E0050726542
:101C00006865617420414253005072656865617473
:101C100020504C41008025000040380000004B005F
:101C2000008070000000960000C0DA000000E100B3
:101C300000002C010008B2010000C2010000F40104
:101C4000000084030090D0030000E80300000807B0
:101C50000020A1070000100E0040420F0060E316B4
:101C600000000000000200000900EA1DFC1D031E28
:101C70000A1E111E4F6E004F666600596573004EB6
:101C80006F00030004004E2F4100003A0020646101
:101C900079732000202020204D6963726F2020443A
:101CA000656C746120202020200042616E674261D3
:101CB0006E6700536C6F7742616E670044656164C4
:101CC0002054696D6500504944005072696E746912
:101CD0006E672E2E2E002064656620000000003FF7
:101CE000CDCC4C3D0AD7A33B6F12033A52657065C9
:101CF0007469657220302E39310020202020206246
:101D00007920654D6F74696F6E205465636800209B
:101D10002020204D6963726F202044656C7461201F
:101D200020202020005072696E74657220726561F7
:101D300064792E0000401454040E15041C000000A9
:101D4000040A040000000000001F1F1F1F1F0000E6
:101D5000001F1111111F0000040A0A0A0E1F1F0E96
:101D6000001C1F11111F0000110A0411040A111197
:101D7000181E1F1E261E2D1E341E341E3B1E421E04
:101D8000491E501E571E5E1E651E6C1E731E7A1E57
:101D9000811E881E8F1E961E9D1EA41EAB1EB21E87
:101DA000B91EC01EC71ECE1ED51EDC1EE31EEA1EB7
:101DB000F11EF81EFF1E061F0D1F341E141F1B1FD1
:101DC000221F291F301F371F3E1F451F4C1F341E67
:101DD000531F5A1F611F681F341E141F6F1F761F69
:101DE0007D1F841F8B1F921F611F341E991F3B1E76
:101DF000A01FA71FAE1FB51FBC1FC31F00000004FC
:101E000000CA1F0000000400D21F0000000400DA16
:101E10001F0000000400E21FEA1F0000000000F89D
:101E20001F00000000000920000000000017200033
:101E300000000000282003E80300002F2003F50322
:101E400001023A2003F60302044620035404020070
:101E5000512003F7030400602003F80301006D2004
:101E600003F9030001782003F40301028420000039
:101E70000000008D2000000000009D2000000000F8
:101E800000AD200000000000AE200000000000B700
:101E9000200000000000C7200000000000D7200044
:101EA00000000000D8200000000000E12000000039
:101EB0000000F120000000000001210000000000EF
:101EC000022100000000000B2100000000001B2187
:101ED00000000000002B2100000000002C21000069
:101EE0000000003521000000000045210000000036
:101EF0000055210000000000562100000000005F96
:101F00002100000000006F2100000000007F210080
:101F100000000000802103FD030010892104570404
:101F200000009821041F040000AA210448040000B6
:101F3000BC210337040000C8210347040000D4215A
:101F40000338040000DD210331040010EB210342BB
:101F5000040010FB21043D0400000B22033A04009E
:101F6000001A220229220000302203430400003B11
:101F70002202B11B00004722029C1B0000522202D9
:101F8000B81B00005E2202A31B0000692202BF1BD7
:101F90000000752202AA1B0000802202C61B00005E
:101FA0008F2202D41B0000982202CD1B0000A12228
:101FB00002AB220000B22202951B0000BA2202C42A
:101FC000220000CB2202D9220000E022E722EE22EA
:101FD000F522FC2203230A23112318231F2326237F
:101FE0002D2334233B2342234923436F6E666967C5
:101FF00075726174696F6E0073746F7265642069C5
:102000006E20454550524F4D00436F6E66696775AF
:10201000726174696F6E006C6F6164656420662E16
:1020200020454550524F4D004261636B20010050E6
:1020300072696E742066696C650050617573652005
:102040005072696E740053746F70205072696E74B0
:1020500000436F6E74696E7565205072696E74000E
:10206000556E6D6F756E742043617264004D6F75AF
:102070006E7420436172640044656C65746520660B
:10208000696C6500583A257830206D6D004D696E99
:1020900020656E6473746F703A257378004D6178B3
:1020A00020656E6473746F703A2573580000593A56
:1020B000257831206D6D004D696E20656E647374F6
:1020C0006F703A257379004D617820656E64737482
:1020D0006F703A25735900005A3A257832206D6D99
:1020E000004D696E20656E6473746F703A25737A63
:1020F000004D617820656E6473746F703A25735A71
:102100000000583A257830206D6D004D696E2065CD
:102110006E6473746F703A257378004D6178206532
:102120006E6473746F703A2573580000593A2578BD
:1021300031206D6D004D696E20656E6473746F7033
:102140003A257379004D617820656E6473746F7001
:102150003A25735900005A3A257832206D6D004DAA
:10216000696E20656E6473746F703A25737A004DE2
:10217000617820656E6473746F703A25735A00003D
:10218000486F6D6520416C6C005A20426162797322
:1021900074657070696E67005370656564204D7575
:1021A0006C2E3A256F6D25252500466C6F77204DE6
:1021B000756C2E203A256F662525250050726568BE
:1021C00065617420504C41005072656865617420EF
:1021D00041425300436F6F6C646F776E00536574B8
:1021E00020746F204F726967696E00446973616281
:1021F0006C6520737465707065720054656D702E27
:10220000203020203A25453002430045787472750D
:102210006465722030204F666600457874722E2007
:10222000706F736974696F6E0003F00302005023CE
:10223000536574204F726967696E005820506F7340
:102240002E2046617374005820506F736974696F53
:102250006E005920506F732E204661737400592010
:10226000506F736974696F6E005A20506F732E201F
:1022700046617374005A20506F736974696F6E0001
:10228000517569636B2053657474696E6773005090
:102290006F736974696F6E004578747275646572E6
:1022A0000046616E207370656564000200000700DF
:1022B0005423534420436172640044656275676728
:1022C000696E670002000005006223436F6E666955
:1022D0006775726174696F6E0002000008006C23FC
:1022E0007C2300000000008C2300000000009523E8
:1022F0000000000000A0230000000000A423000054
:10230000000000AD230000000000B6230000000024
:1023100000BF230000000000C3230000000000D421
:10232000230000000000D5230000000000D6230099
:1023300000000000DA230000000000E82300000095
:102340000000EC230000000000FD2300000000005E
:1023500003240A24341E112418241F2426242D2487
:102360003424341E3B24422449245024341E572450
:102370005E2465246C2473247A248124453A2565DF
:10238000632F25456302437E256F43005A3A257823
:1023900032206D6D004275666665723A256F4200A7
:1023A000256F7300583A257830206D6D00593A2515
:1023B0007831206D6D005A3A257832206D6D0025F8
:1023C0006F730045313A2565302F25453002437E35
:1023D000256F30000000256F73005072696E7469BC
:1023E0006E672074696D65002555740046696C61DF
:1023F0006D656E74207072696E7465640025556633
:10240000206D0088240000000000912400000000DE
:1024100000A0240452040000B124031A040800BEE2
:1024200024031B040000CC24031C040000DA240352
:102430001D040000E824031E040000F524033204F8
:102440000000012503330400000D250334040000BF
:10245000192503350400002525022D25000034250B
:10246000024125000048250251250000582502613F
:1024700025000068250306040000782503070400F2
:102480000087250290250000453A257833206D6DA0
:10249000003120636C69636B203D2031206D6D003D
:1024A00046616E2073706565643A2546732525255F
:1024B000005475726E2046616E204F66660053654B
:1024C000742046616E203235252525005365742021
:1024D00046616E2035302525250053657420466100
:1024E0006E203735252525005365742046616E2002
:1024F00046756C6C004563686F2020203A25646F38
:1025000000496E666F2020203A256469004572728A
:102510006F7273203A256465004472792072756E7B
:102520003A2564640047656E6572616C00020000C4
:1025300004009725416363656C65726174696F6E11
:102540000002000004009F254665656472617465A1
:10255000000200000300A725457874727564657257
:10256000000200000F00AD2553746F726520746F78
:1025700020454550524F4D004C6F616420662E201F
:10258000454550524F4D005A2043616C69622E0000
:102590000200000500CB25341ED525DC25E32534BB
:1025A0001EEA25F125F825341EFF250626341E0DCA
:1025B0002614261B2622262926302637263E264587
:1025C000264C2653265A2661266826341E141F6F71
:1025D0002676267D2684260410040000912602A279
:1025E000260000A92602B7260000BE26040A040021
:1025F00000C826040D040000D126040E040000DDEE
:10260000260416040000E5260413040000EE260448
:1026100029040000FB26042C0400000827042B04D6
:1026200000001327042A0400001D27042E040000C4
:102630002B27044D0400003E27044C0400004F27C4
:10264000042D0400005B27042204000068270423F3
:10265000040000722704240400007C2704250400E1
:10266000008A2704260400009827042F040000A4F1
:102670002702B0270000B72702C2270000C927039E
:10268000AC0F000042617564726174653A256F6336
:10269000005374657070657220496E616374697669
:1026A00065000320040200D1274D61782E20496E79
:1026B000616374697665000358040200D52750727F
:1026C000696E743A25617A004D6F76653A25615AD4
:1026D000004A65726B2020203A25616A004D6178BE
:1026E0003A25667A00486F6D653A25665A0053743C
:1026F0006570732F4D4D3A255365005374617274A4
:102700002046523A255866004D61782046523A25B7
:10271000584600416363656C3A2558410053746123
:10272000622E54696D653A255877005761697420A7
:10273000556E6974733A20255855206D6D005761A8
:1027400069742054656D702E20255854024300434F
:102750006F6E74726F6C3A2558680044542F50495C
:102760004420503A2558700050494420493A255891
:10277000690050494420443A2558640044726976FF
:1027800065204D696E3A25586D0044726976652062
:102790004D61783A25584D00504944204D61783AB2
:1027A000255844005A20506F732E204661737400E0
:1027B0000356040400D9275A20506F736974696F57
:1027C0006E000355040400E127536574205A3D3020
:1027D00000E927F027F727FE2705280C2813281AD9
:1027E00028212828282F2836283D2800000000000E
:1027F0004C2800000000005628000000000065285A
:1028000000000000006F2800000000007828000091
:102810000000008828000000000098280000000048
:102820000099280000000000A2280000000000B26B
:10283000280000000000C228000000000044697366
:102840002E2041667465723A256973005B735D20C2
:10285000303D4F6666004469732E20416674657290
:102860003A256970005B735D20303D4F6666005A03
:102870003A257832206D6D004D696E20656E647367
:10288000746F703A25737A004D617820656E6473B9
:10289000746F703A25735A00005A3A257832206DC9
:1028A0006D004D696E20656E6473746F703A2573A8
:1028B0007A004D617820656E6473746F703A257389
:1028C0005A00000129022904290829102920294039
:1028D000298029012C022C01260226042608261014
:1028E00026202640268026402C802C01230223040B
:1028F00023082310232023402380230120022004C7
:102900002008201020202040208020102C202C0186
:102910002F022F042F082F102F202F402F802F7EC3
:10292000FE7EFD7EFB7EF77EEF7EDF7EBF7E7F003C
:102930000100006329120002000075294300030012
:1029400000B8290401030904BC291802030904D6AC
:10295000291603030904EE290C0001C10201803687
:102960000181361201000202000020C0168304001B
:10297000010102030109024300020100C0320904FF
:1029800000000102020100052400100105240100DD
:10299000010424020605240600010705820308003D
:1029A0004009040100020A0000000705030240007C
:1029B00000070584024000000403090418035400C2
:1029C000650065006E0073007900640075006900A1
:1029D0006E006F00000016035500530042002000F7
:1029E000530065007200690061006C0000000C0378
:1029F000310032003300340035000000494E4649B2
:102A00004E4954594E414ECDCCCC3D0AD7233C17AC
:102A1000B7D13877CC2B329595E6241FB14F0A00F9
:102A20000020410000C84200401C4620BCBE4CCAE9
:102A30001B0E5AAEC59D7400818ED9B064E011247E
:102A40001FBECFEFD0E2DEBFCDBF12E0A0E0B1E00D
:102A5000E4E2FCEC01E00BBF02C007900D92A03055
:102A6000B107D9F71BBE14E1A0E0B2E001C01D928E
:102A7000AA39B107E1F71AE2CEE3DAE204C02297FD
:102A8000FE010E94C2E5C833D107C9F70E9407DCE6
:102A90000C9410E60C940000A0E0B0E0E2E5F5E153
:102AA0000C94DFE5EC015B016115710519F0FB0188
:102AB00091838083F9908F2D90E00E94C6E5892B49
:102AC000C9F7FDE2FF1621F4F990EE24E39405C066
:102AD0002BE2F21609F4F990EE248E010150104019
:102AE000C8016CEF79E243E050E00E94DB17892BCC
:102AF00001F58E010E5F1F4FC8016FEF79E245E0CF
:102B000050E00E94DB17892B19F48E01095F1F4FDB
:102B1000A114B10419F0F50111830083E0FC04C095
:102B200070E090E080E814C070E090E080E86FEF23
:102B300008C1C80164E07AE243E050E00E94DB177C
:102B4000892B69F4A114B10429F470E090E080ECC1
:102B50006FE7F7C02296F501D183C083F6CF8824B2
:102B6000992440E050E060E070E0EF2DE053EA305F
:102B7000A0F5F2E0EF2A8E2D90E09C0128703070D5
:102B8000E2FE06C0232B79F50894811C911C2BC012
:102B9000232B19F0089481089108DB01CA0112E087
:102BA000880F991FAA1FBB1F1A95D1F7480F591FED
:102BB0006A1F7B1F440F551F661F771F4E0F511D45
:102BC000611D711D483929E9520729E9620729E188
:102BD000720748F084E0E82A06C0EE3F31F4E3FCD7
:102BE00039C098E0E92AF990C0CFE53311F0E5311A
:102BF00089F529912D3219F4E0E1EE2A05C02B3236
:102C000019F081E090E003C0299182E090E0E22F8A
:102C1000E053EA3018F0C81BD90B1CC020E030E0AC
:102C2000FCE020383F075CF4C901880F991F880F2A
:102C3000991F280F391F220F331F2E0F311DE991C5
:102C4000E053EA3068F3E4FE03C0309521953F4F2E
:102C5000820E931ECE2CDD24E1FE07C0A114B10428
:102C600021F02197F501D183C083CB01BA010E94E5
:102C70003EE27B018C01F3E0CF22DD2423E0C2168B
:102C8000D10421F417FB109517F91095570168012D
:102C9000C801B70120E030E040E050E00E949EE132
:102CA000882309F44AC097FE0DC02BE1E22E2AE2E8
:102CB000F22E9094819491089394C0E2D0E000E0C9
:102CC00010E012C093E3E92E9AE2F92EF6CFF70155
:102CD0002591359145915491C601B5010E944EE46C
:102CE0005B016C018C1A9D0A8C169D0684F7D595A4
:102CF000C7950F5F1F4F0630110529F08CEF9FEF2E
:102D0000E80EF91EF1CFC501D6017C018D018C2D95
:102D1000880F8D2D881F8F3F51F0C601B50120E02F
:102D200030E040E050E00E949EE1882331F482E2EE
:102D300090E090939914809398147E2D9F2D802F6E
:102D4000612F272F392F482F562FB901CA01CDB730
:102D5000DEB7ECE00C94FBE52F923F925F926F920E
:102D60007F928F929F92AF92BF92CF92DF92EF921B
:102D7000FF920F931F93CF93DF938C011B01EA0106
:102D80006115710519F0FB0191838083209749F04B
:102D9000CE010297839728F020E030E040E050E039
:102DA000F6C0F801A1908F018A2D90E00E94C6E53F
:102DB000892BB9F7FDE2AF1631F4F801A1908F012C
:102DC0005524539407C0FBE2AF1619F4F801A19003
:102DD0008F015524209719F0C031D105C1F4F0E3DB
:102DE000AF1679F4F8018081883711F0883549F4FD
:102DF000F801A1800E5F1F4FF2E05F2AC0E1D0E032
:102E000006C0209721F480E3A816E9F427C0C83053
:102E1000D10531F1C930D10524F4C230D10531F5E5
:102E20000CC0CA30D10589F0C031D105F9F4C12CEC
:102E3000D12CE12CB8E0FB2E28C0C12CD12CE12CE8
:102E4000A0E4FA2E22C0CAE0D0E0FCECCF2EFCECCD
:102E5000DF2EFCECEF2EFCE0FF2E17C0C8E0D0E028
:102E6000C12CD12CE12CE0E1FE2E0FC09E014427A5
:102E700037FD4095542F60E070E080E090E80E94BC
:102E800077E5C901DA016C017D0120E030E040E026
:102E900050E060E03E01882477FC8094982C70ED2F
:102EA000B72EBA0CE9E0EB1570F48A2D81548A3103
:102EB00018F499ECB92E06C08A2D81568A3150F546
:102EC00089EAB82EBA0C8B2D90E08C179D0714F56B
:102ED0006F3FE1F0C216D306E406F506B0F0CA0172
:102EE000B901A40193010E9424E59B01AC012B0DC3
:102EF000311D411D511D2130F0E03F07F0E04F072B
:102F0000F0E85F0710F461E001C06FEFF801A190F5
:102F10008F01C5CF2114310481F0662331F00150B7
:102F20001040F1011183008308C051FE1AC0025005
:102F30001040F1011183008314C067FF12C050FCE0
:102F400005C02FEF3FEF4FEF5FE704C020E030E018
:102F500040E050E882E290E09093991480939814B6
:102F600016C050FE08C050954095309521953F4FB2
:102F70004F4F5F4F0CC057FF0AC082E290E0909322
:102F80009914809398142FEF3FEF4FEF5FE7B9014B
:102F9000CA01DF91CF911F910F91FF90EF90DF90C9
:102FA000CF90BF90AF909F908F907F906F905F90E9
:102FB0003F902F900895FB01DC014150504088F074
:102FC0008D9181341CF08B350CF4805E65916134F9
:102FD0001CF06B350CF4605E861B611171F3990B6C
:102FE0000895881BFCCFFB01DC0102C001900D920B
:102FF00041505040D8F70895FB01DC010D900020AE
:10300000E9F7119701900D920020E1F70895FC0176
:103010008191861721F08823D9F799270895319750
:10302000CF010895FB01DC018D9101908019011001
:10303000D9F3990B0895FB01DC0101900D9200205A
:10304000E1F70895FB01DC014150504048F0019048
:103050000D920020C9F701C01D9241505040E0F789
:103060000895FC0181E090E00190061609F4CF017B
:103070000020D1F701970895A0E0B0E0E2E4F8E184
:103080000C94E3E57C01EB018A01690109C0CE01E2
:103090002196F6010995F70181937F0101501040B7
:1030A00001151105A1F7CDB7DEB7E8E00C94FFE5F7
:1030B000BF92CF92DF92EF92FF920F931F937B010B
:1030C0008C01FB010995B82EC8010196F7010995FD
:1030D000C82EC8010296F7010995D82EC80103969B
:1030E000F7010995982F6B2D7C2D8D2D1F910F9138
:1030F000FF90EF90DF90CF90BF900895DF92EF9216
:10310000FF920F931F937B018C01FB010995D82E31
:10311000C8010196F7010995982F8D2D1F910F91E8
:10312000FF90EF90DF900895A0E0B0E0EAE9F8E1C9
:103130000C94E3E5EC017B018A01690109C0CE0131
:103140002196F70161917F01F60109950150104028
:1031500001151105A1F7CDB7DEB7E8E00C94FFE546
:10316000BF92CF92DF92EF92FF920F931F93D52ED3
:10317000C62EB72E79018C01642FF9010995C8017B
:1031800001966D2DF7010995C80102966C2DF70186
:103190000995C80103966B2DF70109951F910F91B1
:1031A000FF90EF90DF90CF90BF900895DF92EF9265
:1031B000FF920F931F93D72E7A018C01FA01099584
:1031C000C80101966D2DF70109951F910F91FF9090
:1031D000EF90DF9008959C01F999FECF32BD21BD9B
:1031E000F89A80B508959C01F999FECF1FBA32BDB7
:1031F00021BD60BD0FB6F894FA9AF99A0FBE0895F2
:1032000008956091110170911201809113019091C4
:1032100014016817790744F4709314016093130143
:1032200086EE93E00E94402E0895BC0189319105FD
:103230001CF469E170E005C0893C910514F068EC6C
:1032400070E0709329106093281084E394E00E944A
:10325000402E0895EF92FF920F931F93CF93DF9329
:10326000EC01893191051CF4C9E1D0E006C081E090
:10327000C53FD80714F0C4EFD1E0BE01882777FD21
:103280008095982F0E9440E27B018C01609126106E
:1032900070912710882777FD8095982F0E9440E233
:1032A0009B01AC01C801B7010E94A5E19B01AC01E3
:1032B000609122107091231080912410909125101C
:1032C0000E944EE460932210709323108093241088
:1032D00090932510D0932710C093261085E294E098
:1032E000BE010E94402EDF91CF911F910F91FF9060
:1032F000EF9008950E946B529C0180911101909172
:1033000012012817390724F4309312012093110178
:1033100008950E94A5500895DF93CF9300D000D068
:10332000CDB7DEB7BC01CE01019644E050E02BEEF4
:1033300038E10E943C1829813A814B815C81B901B6
:10334000CA010F900F900F900F90CF91DF910895C9
:103350002F923F924F925F926F927F928F929F92A5
:10336000AF92BF92CF92DF92EF92FF920F931F9393
:10337000DF93CF93CDB7DEB728970FB6F894DEBFB3
:103380000FBECDBFA0905F0FB090600FC090610FD7
:10339000D090620F2090630F3090640F4090650FC3
:1033A0005090660F8091670F9091680FA091690F00
:1033B000B0916A0F89839A83AB83BC832091870F76
:1033C0003091880F4091890F50918A0F60908B0F38
:1033D00070908C0F80908D0F90908E0F80918F0F3A
:1033E0009091900FA091910FB091920F8D839E8339
:1033F000AF83B88780910A0F882359F40F2EF0E02D
:10340000EF2EF0E0FF2EF0E80F2FFFE31F2FF02D3F
:103410000AC00F2EF0E7EF2EF2E4FF2EF1E20F2F9D
:10342000FDE31F2FF02DC601B5010E94D8E0A801D1
:1034300097010E944EE4AB01BC0180EF93E022E0D3
:103440000E94352F80910A0F882359F40F2EF0E047
:10345000EF2EF0E0FF2EF0E80F2FFFE31F2FF02DEF
:103460000AC00F2EF0E7EF2EF2E4FF2EF1E20F2F4D
:10347000FDE31F2FF02DC201B101A40193010E94B1
:10348000D8E0A80197010E944EE4AB01BC0187EF90
:1034900093E022E00E94352F80910A0F882359F48F
:1034A0000F2EF0E0EF2EF0E0FF2EF0E80F2FFFE3FD
:1034B0001F2FF02D0AC00F2EF0E7EF2EF2E4FF2EA3
:1034C000F1E20F2FFDE31F2FF02D69817A818B81AF
:1034D0009C812D813E814F8158850E94D8E0A801B2
:1034E00097010E944EE4AB01BC018BEF93E022E018
:1034F0000E94352F20915B0F30915C0F40915D0F42
:1035000050915E0FA090170FB090180FC090190F38
:10351000D0901A0F80910A0F882359F40F2EF0E0F3
:10352000EF2EF0E0FF2EF0E80F2FFFE31F2FF02D1E
:103530000AC00F2EF0E7EF2EF2E4FF2EF1E20F2F7C
:10354000FDE31F2FF02DCA01B9010E9440E2A60140
:1035500095010E944EE4A80197010E944EE4AB0140
:10356000BC018FEF93E022E00E944A2F28960FB60D
:10357000F894DEBF0FBECDBFCF91DF911F910F91A9
:10358000FF90EF90DF90CF90BF90AF909F908F9083
:103590007F906F905F904F903F902F9008956F9223
:1035A0007F928F929F92AF92BF92CF92DF92EF92D3
:1035B000FF920F931F9360913C1070913D1080918A
:1035C0003E1090913F102FE632E143E85AE30E940B
:1035D0004EE47B018C0181E890E00E948C199B01F4
:1035E000AC01C801B7010E94D8E0AB01BC018CE47A
:1035F00094E022E00E94352F8DE694E00E94442D55
:10360000E0918401F09185016385748585859685B7
:1036100020E030E040E751E40E94ACE318160CF4DF
:1036200074C06624772443018DE790E06BEE78E167
:103630000E9458187B018C01E60CF71C081D191D0F
:10364000C801B70120E831E541E050E00E9499E56A
:10365000922E832E742E652E622F732F842F952F1A
:1036600020E83EEA4EEF5FEF0E9424E55B016C012B
:10367000AE0CBF1CC01ED11E8EE594E0492D582D06
:10368000672D762D0E947D2EC601B50120E13EE01A
:1036900040E050E00E9499E5122F032FF42EE52E12
:1036A00080E794E0422F502F6F2D7E2D0E947D2EBB
:1036B000612F702F8F2D9E2D20EF31EF4FEF5FEF99
:1036C0000E9424E5A60EB71EC81ED91EC601B5016C
:1036D0002CE330E040E050E00E9499E587E794E079
:1036E000BA01A9010E947D2E8FE794E00E94522D1D
:1036F0001F910F91FF90EF90DF90CF90BF90AF9010
:103700009F908F907F906F9008950FB6F89460917E
:1037100068147091691480916A1490916B140FBEB3
:10372000209138103091391040913A1050913B104F
:10373000621B730B840B950B28EE33E040E050E0E6
:103740000E9477E5C901DA013C014D016DCF8091FE
:1037500002028823C1F0109202020E94B3448091B9
:103760001601815080931601882349F48091150138
:10377000833010F40E94DC3E85E08093160182E4E1
:1037800093E10E94C0D3089508C00E944E4D0E944C
:10379000A71B82E493E10E9496B08091FA0E8823E1
:1037A000A1F70895CF93DF9397FD10C0EC018F3FF1
:1037B000910521F01CF0CFEFD0E002C0009731F06E
:1037C0008091950F88608093950F07C08091950F29
:1037D000877F8093950FC0E0D0E0662311F00E94B0
:1037E000C41B8091040390E0C817D90729F082E434
:1037F00094E0BE010E94402EC0930403DF91CF915C
:103800000895EF92FF920F931F93DF93CF930F9240
:10381000CDB7DEB78DE089838CE8E82E84E1F82E01
:10382000C7018E010F5F1F4FB80141E050E00E94B9
:103830004DDF8AE08983C701B80141E050E00E9472
:103840004DDF0F90CF91DF911F910F91FF90EF907F
:103850000895E0910902F0910A0244A555A566A5D4
:1038600077A583E094E022E00E94352FE0910902E1
:10387000F0910A0240A951A962A973A982E294E0D9
:1038800020E00E94352FE0911701EF3F29F4E091ED
:103890000902F0910A02E081F0E0EF5FFC4F6081E5
:1038A0008AE094E070E00E94562E0E94011C089568
:1038B0002F923F924F925F926F927F928F929F9240
:1038C000AF92BF92CF92DF92EF92FF920F931F932E
:1038D000DF93CF93CDB7DEB7ED970FB6F894DEBF89
:1038E0000FBECDBF4C018091E101282F84FF22C083
:1038F000D4018C9182FD09C081FF1CC016968D9168
:103900009C9117978F369105A9F00FB6F894809186
:10391000681490916914A0916A14B0916B140FBE51
:103920008093F9029093FA02A093FB02B093FC02F9
:103930000C94AC2CF4010081118102FF45C78085F5
:1039400091858D31910509F4A1C28E319105D0F494
:103950008430910520F4029708F05DC03CC08431AA
:10396000910509F44BC28531910520F4049709F0C3
:1039700016C7F7C18531910509F444C24C9709F087
:103980000EC743C28B35910509F427C48C359105C8
:1039900068F48F31910509F407C48F31910508F45B
:1039A000D8C38A35910509F0FAC614C48338910545
:1039B00009F4D1C48438910528F48C35910509F0B7
:1039C000EEC60FC48438910509F42DC585389105DC
:1039D00009F0E5C626C612FF12C0F401878D90A13A
:1039E000A1A1B2A12091940F0097A105B10519F0F2
:1039F000822F806202C0822F8F7D8093940FC4013A
:103A00000E94BE81882309F4CAC680E061E041E0DB
:103A10000E94786DC4C680915F0F9091600FA09155
:103A2000610FB091620F8A879B87AC87BD878091B9
:103A3000630F9091640FA091650FB091660F8E8710
:103A40009F87A88BB98B8091670F9091680FA09189
:103A5000690FB0916A0F8A8B9B8BAC8BBD8BC401B5
:103A60000E94BE81882309F49AC6FE01329688E03E
:103A7000DF011D928A95E9F7F401828180FD05C07E
:103A800020E030E040E050E007C0D40197962D914F
:103A90003D914D915C919A9780910A0F882351F046
:103AA000CA01B90123E333E34BEC51E40E944EE435
:103AB0009B01AC012A833B834C835D83F4018281AB
:103AC00081FD05C020E030E040E050E007C0D401B7
:103AD0009B962D913D914D915C919E9780910A0FFF
:103AE000882351F0CA01B90123E333E34BEC51E4DD
:103AF0000E944EE49B01AC012E833F834887598787
:103B0000FE01769680E1DF011D928A95E9F78091AA
:103B10005F0F9091600FA091610FB091620F8E8B3B
:103B20009F8BA88FB98F8091630F9091640FA091A4
:103B3000650FB091660F8A8F9B8FAC8FBD8F809180
:103B4000670F9091680FA091690FB0916A0F8E8FE7
:103B50009F8FA8A3B9A36091830F7091840F809168
:103B6000850F9091860F0E9440E22091170F3091AF
:103B7000180F4091190F50911A0F0E944EE46AA33A
:103B80007BA38CA39DA3F401828182FFC7C0A7A45D
:103B9000B0A8C1A8D2A880910A0F882351F0C6010D
:103BA000B50123E333E34BEC51E40E944EE45B01A7
:103BB0006C016E897F89888D998D2A853B854C851E
:103BC0005D850E94D7E06AAF7BAF8CAF9DAF6A8DF9
:103BD0007B8D8C8D9D8D2E853F85488959890E94CE
:103BE000D7E02B013C01C601B50120E030E040E800
:103BF00050E40E944EE4A60195010E944EE47B0130
:103C00008C016AAD7BAD8CAD9DAD9B01AC010E947A
:103C10004EE49B01AC01C801B7010E94D7E07B01D3
:103C20008C01C301B201A30192010E944EE49B01E9
:103C3000AC01C801B7010E94D7E00E94BBE47B0140
:103C40008C016AAD7BAD8CAD9DADA30192010E944C
:103C5000B9E39B01AC0117FB109517F91095C8014A
:103C6000B7010E94A5E17B018C01A80197010E9488
:103C700008E5882329F084E894E00E94572D8FC539
:103C8000D40118968D919C911997039721F417FBF5
:103C9000109517F91095C601B50120E030E040E01D
:103CA00050E00E949EE1882344F417FB109517F919
:103CB0001095D7FAD094D7F8D094C301B201A801D7
:103CC00097010E944EE49B01AC016AAD7BAD8CADC7
:103CD0009DAD0E94D7E020E030E040E05FE30E942D
:103CE0004EE46A837B838C839D836AAD7BAD8CAD10
:103CF0009DADA80197010E944EE49B01AC01C30158
:103D0000B2010E94D8E020E030E040E05FE30E9492
:103D10004EE46E837F83888799870CC06A817B819C
:103D20008C819D812E813F81488559850E94B9E310
:103D30005B016C01E0E0D40118968D919C9119977C
:103D4000029709F4E1E0CE010A96BE016A5E7F4F58
:103D5000AE014E5F5F4F96018501EE2E0E94935B90
:103D60001EC50E94C41BF4012081318133FD05C0B2
:103D700060E070E080E090E007C0D40193966D9120
:103D80007D918D919C91969732FF0BC0F401678DC8
:103D900070A181A192A128EE33E040E050E00E94A2
:103DA00024E50FB6F894E0906814F090691400913F
:103DB0006A1410916B140FBEE60EF71E081F191F30
:103DC00004C00E944E4D0E94A71B0FB6F89480912C
:103DD000681490916914A0916A14B0916B140FBE8D
:103DE00027013801481A590A6A0A7B0AD301C2011D
:103DF00080509449A543B74720F3D1C481E0809314
:103E00000A0FCDC410920A0FCAC4C80188739070FB
:103E1000892B11F080E008C0C801A6E0969587952F
:103E2000AA95E1F78095817006FF08C010925B0F9C
:103E300010925C0F10925D0F10925E0F882321F09C
:103E400041E051E061E01EC0D4012D913C91C901D7
:103E500088739070892B09F4E2C2C901F3E096954A
:103E60008795FA95E1F7582F5170C901E4E09695CE
:103E70008795EA95E1F7682F617025FD02C040E063
:103E800001C041E0852F0E947386C9C282EE98E08E
:103E90000E94224B3090930F80E00E94007A409065
:103EA00022105090231060902410709025104AAA80
:103EB0005BAA6CAA7DAA80E393E00E948C195B0147
:103EC0006C0184E393E00E948C197B018C0188E4EF
:103ED00093E00E948C1900D000D0ADB7BEB7119608
:103EE0006D937D938D939C931497C601B501A801A2
:103EF00097010F2EF0E8EF2EFFE4FF2EF3EC0F2FCB
:103F0000F7E41F2FF02D570168010E94B27D0F903A
:103F10000F900F900F9081E060E043E020E00E945E
:103F2000017A6EAB7FAB88AF99AF20E030E040E024
:103F300050E00E949EE187FD32C488E393E00E9436
:103F40008C195B016C018CE393E00E948C197B015E
:103F50008C0188E493E00E948C1900D000D0EDB76A
:103F6000FEB76183728383839483C601B501A80180
:103F700097010F2EF0E8EF2EFFE4FF2EF3EC0F2F4A
:103F8000F7E41F2FF02D570168010E94B27D0F90BA
:103F90000F900F900F9080E060E043E021E00E94DE
:103FA000017A2B013C0120E030E040E050E00E942B
:103FB0009EE187FDF4C380E493E00E948C195B01CD
:103FC0006C0184E493E00E948C197B018C0188E4ED
:103FD00093E00E948C1900D000D0ADB7BEB7119607
:103FE0006D937D938D939C931497C601B501A801A1
:103FF00097010F2EF0E8EF2EFFE4FF2EF3EC0F2FCA
:10400000F7E41F2FF02D570168010E94B27D0F9039
:104010000F900F900F9080E061E043E021E00E945C
:10402000017A7B018C0120E030E040E050E00E940A
:104030009EE187FDB4C36EA97FA988AD99ADA301A8
:1040400092010E94D8E0A80197010E94D8E02BEAD3
:104050003AEA4AEA5EE30E944EE47B018C018CEA74
:1040600098E0B801A70122E00E944A2FF401808164
:10407000918192FF43C0878D90A1A1A1B2A1009729
:10408000A105B105D9F180E00E94AA78C801B70165
:104090002091670F3091680F4091690F50916A0F1E
:1040A0000E94D7E09B01AC0160911A1070911B1027
:1040B00080911C1090911D100E94D8E060931A10FE
:1040C00070931B1080931C1090931D100E945288B7
:1040D00081E061E041E00E94738684EC98E00E94F8
:1040E000642D40911A1050911B1060911C1070911A
:1040F0001D108EE499E022E00E944A2F4AA85BA896
:104100006CA87DA840922210509223106092241037
:1041100070922510832D90E075E0969587957A959D
:10412000E1F781700E94007AD4018D919C911197E2
:1041300092FF0DC05F968D919D910D90BC91A02D29
:104140000297A105B10519F480E00E945C3181E07D
:1041500026C013FD03C063E0F62E02C0F401F3A0F5
:104160000091930F10E055E0169507955A95E1F7E9
:10417000017080E00E94007A6F2D70E041E0E42E33
:10418000F12CE622F7227695679561708E2D43E03B
:1041900021E00E94017A802F0E94007A8E2D0E94D9
:1041A000AA780E94A819FBC283ED98E00E94442DD2
:1041B0001D9902C08CE401C088E489838CE894E1F5
:1041C000BE016F5F7F4F41E050E00E944DDF0E94D3
:1041D000011CE5C210924D0FE2C281E080934D0FA9
:1041E000DEC2C090870FD090880FE090890FF090CA
:1041F0008A0F60908B0F70908C0FA0908D0FB090F5
:104200008E0F20908F0F3090900F4090910F509014
:10421000920F03FF23C0D4011A962D913D914D9129
:104220005C911D9780910A0F882351F0CA01B90152
:1042300023E333E34BEC51E40E944EE49B01AC01D9
:10424000CA01B90120915F0F3091600F4091610F59
:104250005091620F0E94D7E06B017C0104FF21C0E6
:10426000F401268537854089518980910A0F88237A
:1042700051F0CA01B90123E333E34BEC51E40E944E
:104280004EE49B01AC01CA01B9012091630F30914A
:10429000640F4091650F5091660F0E94D7E03B017B
:1042A0005C0105FF23C0D40152962D913D914D91A3
:1042B0005C91559780910A0F882351F0CA01B9018A
:1042C00023E333E34BEC51E40E944EE49B01AC0149
:1042D000CA01B9012091670F3091680F4091690FB1
:1042E00050916A0F0E94D7E01B012C01B601C70153
:1042F0009301A501710182010E948978F4018081F6
:1043000086FF4DC226893789408D518D80910A0FD5
:10431000882351F0CA01B90123E333E34BEC51E4A4
:104320000E944EE49B01AC01CA01B9012091A10198
:104330003091A2014091A3015091A4010E944EE44A
:104340000E940DE260935B0F70935C0F80935D0F92
:1043500090935E0F24C260915F0F7091600F809107
:10436000610F9091620F2091630F3091640F409123
:10437000650F5091660FE090670FF090680F009105
:10438000690F10916A0F6090221070902310809036
:104390002410909025100F2EF0E0AF2EF0E0BF2EED
:1043A000F0E0CF2EF0E0DF2EF02DA0922E10B09294
:1043B0002F10C0923010D0923110A0923210B092D3
:1043C0003310C0923410D092351000D000D0A0909D
:1043D000B501B090B601C090B701D090B801ADB7AB
:1043E000BEB71196AD92BD92CD92DC9214970F2E6E
:1043F000F0E8AF2EFFE4BF2EF3ECCF2EF7E4DF2E74
:10440000F02D0E942B8560922210709223108092D2
:104410002410909225100F900F900F900F9080E035
:104420000E94AA78BCC180E00E94007A80E090E0FF
:10443000A0E0B0E08093870F9093880FA093890F3E
:10444000B0938A0F80938B0F90938C0FA0938D0F56
:10445000B0938E0F80938F0F9093900FA093910F36
:10446000B093920F6091BD017091BE018091BF0128
:104470009091C0010E94177FC090E20FD090E30F8F
:10448000E090E40FF090E50F0091E60F1091E70F38
:104490002091E80F3091E90F4091DE0F5091DF0F2E
:1044A0006091E00F7091E10FD901C8015801FA2F16
:1044B000EB2F0C151D052E053F052CF4D701C60169
:1044C0005601FA2FEB2FC501AF2FBE2F841795078A
:1044D000A607B70714F4DB01CA012C013D014C18F3
:1044E0005D086E087F08730162012C013D01401ACE
:1044F000510A620A730A8C019D01041B150B260BDD
:10450000370B0EA71FA728AB39AB81E596E0B701A3
:10451000A6010E946A2E8AE596E0B301A2010E94DC
:104520006A2E83E696E04EA55FA568A979A90E9448
:104530006A2ED4018D919C91119792FF2BC15F96A9
:104540008D919D910D90BC91A02D181619061A06FB
:104550001B060CF01FC18DE793E0B60143EF58E155
:104560000E94D6180E94762F282FF999FECF88E650
:1045700090E092BD81BDF89A80B5281769F0F9994D
:10458000FECF1FBA88E690E092BD81BD20BD0FB678
:10459000F894FA9AF99A0FBE8FE793E0B20143EFCD
:1045A00058E10E94D6180E94762F282FF999FECF45
:1045B00088E690E092BD81BDF89A80B5281769F031
:1045C000F999FECF1FBA88E690E092BD81BD20BD6B
:1045D0000FB6F894FA9AF99A0FBE81E893E06EA5A7
:1045E0007FA543EF58E10E94D6180E94762F282F0E
:1045F000F999FECF88E690E092BD81BDF89A80B52A
:10460000281709F4C7C0F999FECF1FBA88E690E0D1
:1046100092BD81BD20BD0FB6F894FA9AF99A0FBEEB
:10462000B9C00091930F10E025E0169507952A95E3
:10463000E1F7017080E00E94007A10924F0F109213
:10464000500F1092510F1092520F1092530F109260
:10465000540F1092550F1092560F2091FA0F30916F
:10466000FB0F4091FC0F5091FD0F2093570F30939B
:10467000580F4093590F50935A0F80E090E0A0E0FC
:10468000B0E08093870F9093880FA093890FB09329
:104690008A0F80938B0F90938C0FA0938D0FB09304
:1046A0008E0F80938F0F9093900FA093910FB093E4
:1046B000920F10923B0F10923C0F10923D0F1092F0
:1046C0003E0F10923F0F1092400F1092410F109228
:1046D000420F2093430F3093440F4093450F509364
:1046E000460F6091BD017091BE018091BF01909114
:1046F000C0010E94177F6091FA0F7091FB0F8091AB
:10470000FC0F9091FD0F0E9440E220E030E040EC71
:104710005FE30E944EE40E940DE2AB01BC01809178
:10472000E60F9091E70FA091E80FB091E90F6A01B1
:104730007B01C81AD90AEA0AFB0A8091DE0F909120
:10474000DF0FA091E00FB091E10F4A015B01881AE1
:10475000990AAA0ABB0A8091E20F9091E30FA091F7
:10476000E40FB091E50F481B590B6A0B7B0B81E5F9
:1047700096E00E946A2E8AE596E0B701A6010E94A3
:104780006A2E83E696E0B501A4010E946A2E802F6E
:104790000E94007A81E061E041E00E9473860FB6DA
:1047A000F8948091681490916914A0916A14B09162
:1047B0006B140FBE8093F9029093FA02A093FB0250
:1047C000B093FC020C94AC2C01FD02C00C94992C0B
:1047D000F401868197818337910509F485C6843772
:1047E000910508F086C08235910509F491C583359D
:1047F000910508F03DC08931910509F42FC18A3136
:104800009105C8F48631910509F40CC187319105F1
:1048100048F48431910509F4FBC0459711F00C94DC
:10482000AC2CFBC08731910509F401C1489711F008
:104830000C94AC2C0EC18C31910509F433C18D312F
:10484000910548F48A31910509F40EC14B9711F096
:104850000C94AC2C22C18032910509F43EC18A32FD
:10486000910509F44BC14E9711F00C94AC2C26C164
:104870008836910509F48BC189369105D8F48535C0
:10488000910509F468C58635910550F48335910585
:1048900009F441C58435910511F00C94AC2C3FC549
:1048A0008C35910509F478C58336910511F00C9487
:1048B000AC2CBBC58B36910509F420C58C3691050F
:1048C00050F48936910509F424C28A36910511F015
:1048D0000C94AC2C01C58F36910509F4F2C58237D2
:1048E000910509F408C68D36910511F00C94AC2C95
:1048F0001AC28F3C910509F42FC7803D9105E0F560
:104900008E3B910509F422C48F3B9105D8F487377B
:10491000910509F404C68837910550F48437910550
:1049200009F42AC48537910511F00C94AC2CE6C526
:104930008837910509F41FC68C38910511F00C9445
:10494000AC2CA3C18B3C910509F4ABC68C3C910502
:1049500050F4893C910509F418C68A3C910511F080
:104960000C94AC2C58C68D3C910509F4EEC68E3CD7
:10497000910508F0EDC6A5C6F1E080399F0709F45E
:104980003FC721E08139920708F58B3F910509F473
:104990008CC78C3F910550F48C3D910509F40EC7EE
:1049A0008D3D910511F00C94AC2C18C731E08F327D
:1049B000930709F45EC441E08E35940709F470C78B
:1049C0008C52914011F00C94AC2C31C4A1E0843F86
:1049D0009A0709F44CC7B1E0853F9B0750F4E1E02A
:1049E00081399E0709F40FC78259914009F0B4C775
:1049F0000DC701E0863F900709F44FC711E0863FDD
:104A0000910708F43CC7875F914009F0A5C79DC690
:104A100086EA90E10E940C909FC786EA90E10E948E
:104A200071939AC786EA90E10E94428E95C717FF5C
:104A300093C786EA90E160E00E941B9FD401D39661
:104A40006D917C91D49786EA90E140E00E94758F49
:104A500083C786EA90E10E945A8E7EC786EA90E17B
:104A600060E00E94BB9278C712FF76C7F401478DC1
:104A700050A161A172A180911011882309F46CC723
:104A800040930711509308116093091170930A1114
:104A900086EE90E10E94AC9C5FC786EA90E10E949E
:104AA000508F5AC717FF58C7D401D3966D917C9188
:104AB000D49786EA90E10E94118F4EC717FF4CC72A
:104AC00086EA90E160E00E941B9FF40163A974A94B
:104AD00086EA90E10E94C28E3FC717FF3DC786EA73
:104AE00090E160E00E941B9FD401D3966D917C9170
:104AF000D49786EA90E10E94868E2EC712FF2CC7BB
:104B000013FF2AC7F401878D90A1A1A1B2A1B7FD1F
:104B100023C78F3F9105A105B10511F00CF01CC70B
:104B2000E3A0F4A020E030E0F901EE0FFF1FE55410
:104B3000FE4FE4918E2F90E08E159F0509F40CC76F
:104B40002F5F3F4F2833310579F7F7FC05C78E2DCE
:104B50000E941AD7D4015F969C915F9790962C91F2
:104B6000EE2DF0E0092E0E9489D78E2D692F722F2D
:104B70000E9437D98FEA94E0B7010E94562EF401C3
:104B8000678D70A18BEB94E00E94402EE5C60E94D9
:104B9000A63E882309F0E0C60FB6F8948091681409
:104BA00090916914A0916A14B0916B140FBE809318
:104BB000F9029093FA02A093FB02B093FC02809159
:104BC000E10183FDC9C6D4018D919C91119793FD9C
:104BD0000CC092FF0CC05F968D919D910D90BC9181
:104BE000A02D0097A105B10511F40E94C41BF4018A
:104BF0008081918192FFB0C6C78CD0A0E1A0F2A0C5
:104C00009C012070317091FF1FC0068D232B11F481
:104C100010E011C010E0D4015A966D917D918D91F4
:104C20009C915D9720E030E040E050E00E94ACE3D2
:104C300018160CF411E0C701B6010E9440E2402FA3
:104C4000212F0E94604288C6E0910902F0910A0279
:104C50000081232B11F410E00FC010E0F401628DED
:104C6000738D848D958D20E030E040E050E00E940F
:104C7000ACE318160CF411E0C701B6010E9440E243
:104C8000402F212F0E94604267C60E94A63E8823C3
:104C900009F062C60FB6F894809168149091691477
:104CA000A0916A14B0916B140FBE8093F902909397
:104CB000FA02A093FB02B093FC028091E10183FD14
:104CC0004BC6D4018D919C91119792FF45C65F967A
:104CD000ED90FD900D911C91929790FD02C0DD2406
:104CE00010C0DD24F401628D738D848D958D20E0DC
:104CF00030E040E050E00E94ACE3181614F4DD24EC
:104D0000D394C801B7010E9440E24D2D0E94273C78
:104D100023C683E0169507958A95E1F7802F817069
:104D20000E94291C19C60E94A63E882309F014C6B9
:104D30000FB6F8948091681490916914A0916A1448
:104D4000B0916B140FBE8093F9029093FA02A09376
:104D5000FB02B093FC028091E10183FDFDC582E47A
:104D600093E165E072E040E00E949CAF82E493E151
:104D70000E9413CC0E94C41B6090090270900A022A
:104D8000D4012D913C91119731FF08C05E968C9112
:104D9000882321F418E1612E11E0712E32FF23C027
:104DA000F401E78CF0A001A112A1D301CC9030FD59
:104DB00002C0DD2410C0DD24F401628D738D848D6A
:104DC000958D20E030E040E050E00E94ACE3181602
:104DD00014F4DD24D394C801B7010E9440E24C2DA5
:104DE0002D2D0E946042D3019C966D917D918D91F5
:104DF0009C919F97D0962D913D914D915C91D39729
:104E00000E94D7E07B018C0120E030E040E050E0E0
:104E10000E94ACE318165CF4C801B70120E030E052
:104E200040E050E40E949EE1882364F495C5C801E7
:104E3000B70120E030E040E050EC0E94ACE31816EF
:104E40000CF48AC59924F30122A533A580A591A568
:104E50008217930714F4992493940FB6F894009151
:104E600068141091691420916A1430916B140FBE6C
:104E70000AA71BA72CA73DA722243324210110E059
:104E80000FB6F894209168143091691440916A1417
:104E900050916B140FBE2EA33FA348A759A7DA0168
:104EA000C9012AA53BA54CA55DA5821B930BA40BAC
:104EB000B50B895E9340A040B04058F080E00E945E
:104EC000291C8EA19FA1A8A5B9A58AA79BA7ACA7BD
:104ED000BDA70E94A71B8091090290910A02681643
:104EE000790609F067C0D3019396ED90FC909497F2
:104EF0001E141F040CF05EC0112309F05BC0992042
:104F000009F458C091966D917C919297882777FD0E
:104F10008095982F0E9440E29B01AC01F30164A5AB
:104F200075A586A597A50E94ACE318160CF042C0A3
:104F300000D000D000D00DB71EB70F5F1F4F6627FF
:104F400077276E197F09882777FD8095982F0E9413
:104F500040E22091A1013091A2014091A301509122
:104F6000A4010E944EE40E940DE25B016C01F3017A
:104F700087859089A189B289F80180839183A28372
:104F8000B3831482158260E070E080E090E020E05E
:104F900030E040E050E0EE24FF2487010E94CE770D
:104FA00011E02DB73EB72A5F3F4F0FB6F8943EBFD2
:104FB0000FBE2DBF211431044104510409F053C028
:104FC0009920C9F0D301D0966D917D918D919C91DE
:104FD000D39720E030E040E85FE30E94D7E09B01F8
:104FE000AC01F30164A575A586A597A50E94ACE365
:104FF00087FF1AC045CFD301D0966D917D918D91D9
:105000009C91D39720E030E040E85FE30E94D8E035
:105010009B01AC01F30164A575A586A597A50E9427
:105020009EE118160CF42CCFD3015F966D917C9104
:105030009097882777FD8095982F28EE33E040E001
:1050400050E00E9424E51B012C012EA13FA148A5A0
:1050500059A5220E331E441E551E2114310441044D
:10506000510409F40DCFD201C1012EA13FA148A5E1
:1050700059A5821B930BA40BB50B80509449A543F3
:10508000B74708F4FDCE112309F44AC08091090204
:1050900090910A026816790609F042C000D000D04B
:1050A00000D00DB71EB70F5F1F4FD30193966D91C0
:1050B0007C919497882777FD8095982F0E9440E2F5
:1050C0002091A1013091A2014091A3015091A4012E
:1050D0000E944EE40E940DE25B016C01F3018785A2
:1050E0009089A189B289F80180839183A283B383D7
:1050F0001482158260E070E080E090E020E030E013
:1051000040E050E0EE24FF2487010E94CE770DB7E7
:105110001EB70A5F1F4F0FB6F8941EBF0FBE0DBF1C
:10512000109282130FB6F8948091681490916914CC
:10513000A0916A14B0916B140FBE8093F902909302
:10514000FA02A093FB02B093FC0206C410928213F1
:105150000FB6F8948091681490916914A0916A1424
:10516000B0916B140FBE8093F9029093FA02A09352
:10517000FB02B093FC02F0C323FDEEC30FB6F8941C
:105180008090681490906914A0906A14B0906B1489
:105190000FBE0FB6F8948091681490916914A09195
:1051A0006A14B0916B140FBE88199909AA09BB093A
:1051B000895E9340A040B04070F080E00E94291CBE
:1051C0000FB6F8948090681490906914A0906A14B7
:1051D000B0906B140FBE0E94A71BC0908401D090AA
:1051E0008501D6011B96ED90FD900D911C911E97A7
:1051F000C801B70120E030E040EF51E40E94ACE389
:1052000018160CF0A9C3C801B701F6012781308533
:10521000418552850E94D7E09F7720E030E040E84A
:105220005FE30E94ACE318160CF4B3CF95C312FDF4
:1052300003C061E070E005C0D4015F966D917C9180
:10524000909713FD03C008EE13E003C0F40103A11F
:1052500014A184E120E030E040E050E00E940EDC48
:10526000B80180E090E00E9404D984E10E9432DD20
:1052700073C312FD03C026E930E005C0D4015F9678
:105280002D913C91909713FD03C0CC24DD2409C0DF
:10529000F401C3A0D4A01C141D041CF4B1E0CB2E57
:1052A000D12CF601EE0FFF1FEC57FE4FE080F1808E
:1052B000B901882777FD8095982F0E9440E2AB01C5
:1052C000BC01F3E016950795FA95E1F70170C70167
:1052D0002C2D0E941E3F40C312FD03C08FEF90E0B3
:1052E00005C0D4015F968D919C919097612F669532
:1052F0006695669561700E94D21B2EC3612F6695DC
:1053000066956695617080E090E00E94D21B24C390
:1053100010924E0F21C381E080934E0F1DC312FFE8
:1053200014C0F401678D70A181A192A128EE33E031
:1053300040E050E00E9424E560938701709388016B
:105340008093890190938A0107C30E94C41B81E066
:105350000E94A68701C312FF16C0D4015F966D910B
:105360007D918D919C91929728EE33E040E050E042
:105370000E9424E56093FD027093FE028093FF0279
:1053800090930003E9C21092FD021092FE02109267
:10539000FF0210920003E0C203FF0DC0F4018285FA
:1053A0009385A485B5858093950190939601A093EC
:1053B0009701B0939801D4018C9184FF0EC01E9682
:1053C0008D919D910D90BC91A02D8093990190930A
:1053D0009A01A0939B01B0939C01F401808185FF09
:1053E0000CC082899389A489B58980939D0190938B
:1053F0009E01A0939F01B093A0010E945288D40106
:105400008C9186FFA9C2E0910902F0910A0256969A
:105410002D913D914D915C9159972187328743871A
:10542000548780810E942F4397C212FD05C060E11E
:1054300077E280E090E00BC0F401678D70A181A15C
:1054400092A128EE33E040E050E00E9424E503FD05
:10545000779A04FD769A05FD479A0FB6F894E09086
:105460006814F090691400916A1410916B140FBEC7
:10547000E60EF71E081F191F02C00E94EB870FB629
:10548000F8948091681490916914A0916A14B09175
:105490006B140FBE27013801481A590A6A0A7B0AA1
:1054A000D301C201805A9648A140B04030F3D401E4
:1054B0003C9133FD779834FD769835FF4DC247987F
:1054C0004BC212FF04C0F401878D8093E1018091EB
:1054D000E10183FF41C260E070E080E090E040E0E5
:1054E00020E00E94604238C286E192E00E94522D84
:1054F0000E94CF1A31C20E94A8192EC217FF2CC2D7
:10550000D401D3966D917C91D49782E493E140E0ED
:105510000E94C8AF82E493E10E9413CC1DC20E9496
:10552000C41B8DEC94E00E94442D1E9B03C083ECB1
:1055300094E002C080EC94E00E94442D8BED94E056
:105540000E94442D1F9B03C083EC94E002C080ECBA
:1055500094E00E94442D89EE94E00E94442D649BC7
:1055600003C083EC94E002C080EC94E00E94442DE0
:105570000E94011CF1C112FFEFC113FFEDC1F40144
:10558000878D63A10E94C9ACE7C103FF0DC0F40180
:1055900082859385A485B5858093C1019093C201CE
:1055A000A093C301B093C401D4018C9184FF0EC0B9
:1055B0001E968D919D910D90BC91A02D8093C5015B
:1055C0009093C601A093C701B093C801F4018081F4
:1055D00085FF0CC082899389A489B5898093C9010C
:1055E0009093CA01A093CB01B093CC01D4018C91CC
:1055F00086FF0EC056968D919D910D90BC91A02D69
:105600008093CD019093CE01A093CF01B093D001B0
:105610000E945288A1C103FF0DC0F40182859385C9
:10562000A485B5858093D1019093D201A093D30135
:10563000B093D401D4018C9184FF0EC01E968D913D
:105640009D910D90BC91A02D8093D5019093D60192
:10565000A093D701B093D801F401808185FF0CC0DD
:1056600082899389A489B5898093D9019093DA01BD
:10567000A093DB01B093DC01D4018C9186FF0EC0B6
:1056800056968D919D910D90BC91A02D8093DD013A
:105690009093DE01A093DF01B093E0010E94528855
:1056A0005BC112FF59C1F401278D30A141A152A164
:1056B00012161306140615060CF44EC1209315019C
:1056C0004BC18091090290910A0212FD03C0FC01B6
:1056D000B5960EC0F401878D90A1A1A1B2A1B7FD2E
:1056E0003BC10097A105B10509F036C1EDE3F1E03A
:1056F00003FF0BC0D4011A962D913D914D915C9101
:105700001D97228F338F448F558FD4018C9184FF46
:105710000AC01E962D913D914D915C915197268F17
:10572000378F40A351A3D4018C9185FF0AC05296B4
:105730002D913D914D915C91559722A333A344A3A4
:1057400055A3CF010E94E03B07C10E94383A04C133
:10575000C4010E94663700C103FF0DC0F4018285B9
:105760009385A485B58580932A1090932B10A093E0
:105770002C10B0932D10D4018C9186FF11C0E091B4
:105780000902F0910A0256962D913D914D915C913E
:105790005997278B308F418F528F80810E942F43E2
:1057A00040912A1050912B1060912C1070912D1067
:1057B00080EF94E022E00E944A2FCEC012FD05C087
:1057C00024E630E040E050E005C0F401278D30A130
:1057D00041A152A1C9010E942A19BEC012FD05C0F3
:1057E00024E630E040E050E007C0D4015F962D9100
:1057F0003D914D915C919297C9010E941519ACC0E1
:105800000E94C41BA9C00E947879A6C010FF06C0E0
:10581000F401C28CD38CE48CF58C08C0C0902210AB
:10582000D0902310E0902410F0902510B801E4E00F
:1058300076956795EA95E1F76170A80175E0569550
:1058400047957A95E1F74170980156E0369527958E
:105850005A95E1F7217093E0169507959A95E1F72F
:10586000802F8170870176010E940C8775C080E0CF
:105870000E945C3181E39AE00E94712D6DC00E940C
:105880002634E0910902F0910A0280810E942F43A0
:1058900081E59AE00E94712D5FC00E94E1375CC0F3
:1058A00083EF91E00E94522D57C060911A107091C1
:1058B0001B1080911C1090911D102091670F30914A
:1058C000680F4091690F50916A0F0E94D7E0609372
:1058D0001A1070931B1080931C1090931D1010923F
:1058E000570F1092580F1092590F10925A0F0E9492
:1058F00052888FE49FE06BE37FE00E94306B80E092
:105900000E94AA7840911A1050911B1060911C10AF
:1059100070911D108EE499E022E00E944A2F80E0F1
:105920000E945C3188E295E00E94522D0E94A819E5
:1059300013C011FF08C00E94C41BD4015E968C9155
:105940000E942F4309C022FF07C085ED93E00E940B
:10595000442DC4010E94874BED960FB6F894DEBF2C
:105960000FBECDBFCF91DF911F910F91FF90EF90B0
:10597000DF90CF90BF90AF909F908F907F906F906F
:105980005F904F903F902F900895CF93DF9320C06A
:1059900080911111882381F0888181FF04C08E815C
:1059A0009F814D9739F186EA90E1BE010E94B29045
:1059B000CE010E94444C03C0CE010E94581CCE016F
:1059C0000E94554C0E94A71B82E493E10E9496B06E
:1059D0008091FA0E882329F40E948147EC010097F8
:1059E00071F00E944E4D82E493E10E9496B02097A0
:1059F00079F6E8CF86EA90E10E94F18ED9CFDF9167
:105A0000CF910895CF93DF930E944E4D0E9481471E
:105A1000EC0182E493E10E9496B02097D1F080914E
:105A20001111882381F0888181FF04C08E819F81BC
:105A30004D9791F086EA90E1BE010E94B290CE01AE
:105A40000E94444C03C0CE010E94581CCE010E940B
:105A5000554C0E94EB87D8CF86EA90E10E94F18EE8
:105A6000EECFDF93CF930F92CDB7DEB789838CE86B
:105A700094E1BE016F5F7F4F41E050E00E944DDF37
:105A80000F90CF91DF910895CF93DF93EC0102C087
:105A90000E94312DFE01849121968823C9F7DF9160
:105AA000CF9108950E94442D0E94011C08950F93E8
:105AB0001F938C0180ED92E00E94442DC8010E944A
:105AC000522D1F910F9108950F931F938C0187ED15
:105AD00092E00E94442DC8010E94522D1F910F9107
