:100000000C94801F0C94AB1F0C94AB1F0C94AB1F73
:100010000C94AB1F0C94AB1F0C94AB1F0C94AB1F38
:100020000C94AB1F0C94AB1F0C9473F40C94C0F2A3
:100030000C94AB1F0C94AB1F0C94AB1F0C94AB1F18
:100040000C94AB1F0C94516A0C94AB1F0C94AB1F17
:100050000C94AB1F0C94AB1F0C947B690C9483F134
:100060000C94AB1F0C94AB1F0C94AB1F0C94AB1FE8
:100070000C94AB1F0C94AB1F0C94AB1F0C94AB1FD8
:100080000C94AB1F0C94AB1F0C94AB1F0C94AB1FC8
:100090000C94AB1F0C94AB1F5F6378637863786339
:1000A0007863786378637863786378637863786378
:1000B0007863786378637863786378637863786368
:1000C0007863786378637863786378634C63EE620F
:1000D000FA625F627863286334637863786373627B
:1000E0004A6278631C6378634063106306637863D5
:1000F00078637863CA62D662E26278637863786311
:100100007863786378637863786378634C63EE62CE
:10011000FA625F627863286334637863786373623A
:100120004A6278631C637863406310630663786394
:1001300078637863CA62D662E26251CF81CFB9CF69
:10014000DFD040D740D740D740D740D740D740D75F
:1001500040D740D708D049D095D040D740D740D7D6
:1001600040D740D740D740D740D740D740D740D7D7
:100170001FD21FD21FD26AD26AD26AD2B5D240D75A
:10018000EAD3FFD2FFD2FFD248D348D348D395D386
:1001900095D395D340D740D740D740D740D787D1C4
:1001A000BDD140D733D479D4CED414D52BD559D59D
:1001B00087D5B5D5FBD53DD67DD6C4D6F8D642D5A4
:1001C00040D740D740D740D740D740D740D740D777
:1001D00040D740D740D740D740D740D740D740D767
:1001E00040D740D740D740D740D740D740D740D757
:1001F000A0D140D740D740D710D72AD740D740D733
:1002000040D740D744CF40D740D7B0CF8CD040D78D
:10021000EED140D740D740D740D740D740D740D77E
:1002200040D730D15AD105A84CCDB2D44EB93836CA
:10023000A9020C50B9918688083CA6AAAA2ABE0039
:100240000000803F00011C1D13FF1A1E1F12FF1B20
:10025000202111FF24FFFF0F0E22230D0706265336
:100260006574204D6963726F7374657070696E6731
:10027000005761746368646F6720666561747572A6
:100280006520776173206E6F7420636F6D70696C89
:10029000656420696E746F20746869732076657276
:1002A00073696F6E21004D323531200020746F204C
:1002B0000053657420766F6C756D65747269632088
:1002C000657874727573696F6E20666F72206578D9
:1002D000747275646572200044697361626C656450
:1002E00020766F6C756D65747269632065787472C1
:1002F0007573696F6E20666F7220657874727564AD
:10030000657220004D313134200050696E206361E8
:100310006E206E6F74206265207365742062792090
:100320004D34322C20697320696E2073656E7369B9
:10033000746976652070696E73212000496C6C6564
:1003400067616C20532076616C756520666F722042
:100350004D3432004175746F726574726163743A22
:1003600000436F6C6420657874727573696F6E20DA
:10037000646973616C6C6F77656400436F6C6420B3
:10038000657874727573696F6E20616C6C6F7765D8
:1003900064004A616D20646562756767696E673ADB
:1003A000004A616D20636F6E74726F6C20646973B4
:1003B00061626C65643A00473133342000506F73DA
:1003C00046726F6D53746570733A00436F6D70447D
:1003D000656C74613A0043616C6962726174696F43
:1003E0006E206D6F76656D656E74206973206C6923
:1003F0006D6974656420746F2031306D6D2E004618
:1004000069727374206D6F766520746F20746F75D8
:10041000636820617420782C793D302C3020746F13
:10042000206175746F2D73657420726164697573D2
:100430002E0043616C6962726174696F6E206D6F2A
:1004400076656D656E74206973206C696D6974657D
:100450006420746F2031306D6D2E0043616E6E6FBD
:1004600074207365742072616469757320616E64B1
:1004700020666C6F6F722061742073616D652074EB
:10048000696D652E0043616C6962726174696F6E9B
:1004900020636F6465206973206C696D697465649D
:1004A00020746F20626F74746F6D20313025206F5F
:1004B00066205A206865696768740052656C6174CB
:1004C00069766520706F736974696F6E696E670015
:1004D0004162736F6C75746520706F736974696FB6
:1004E0006E696E6700473239200065786563757400
:1004F0006547436F6465202F207175657565446598
:100500006C74614D6F76652072657475726E7320C0
:100510006572726F7200526F642052616469757304
:100520002073657420746F3A2000582028412920D8
:10053000746F77657220666C6F6F722073657420BC
:10054000746F3A2000592028422920746F77657211
:1005500020666C6F6F722073657420746F3A200090
:100560005A2028432920746F77657220666C6F6F5C
:10057000722073657420746F3A20004649524D57BB
:100580004152455F4E414D453A526570657469650B
:10059000725F302E39322E35204649524D57415226
:1005A000455F55524C3A68747470733A2F2F6769DF
:1005B000746875622E636F6D2F72657065746965FE
:1005C000722F52657065746965722D4669726D7718
:1005D0006172652F2050524F544F434F4C5F564528
:1005E0005253494F4E3A312E30204D414348494EE7
:1005F000455F545950453A44656C746120455854E0
:1006000052554445525F434F554E543A312052455E
:100610005045544945525F50524F544F434F4C3A06
:10062000330044656275673A006F6B000D0A004E37
:10063000414E00494E46004572726F723A00496E53
:10064000666F3A005761726E696E673A0052657361
:10065000656E643A004563686F3A006F6B2000571F
:10066000726F6E6720636865636B73756D004D69AB
:100670007373696E6720636865636B73756D00469D
:100680006F726D6174206572726F7200446F6E6577
:10069000207072696E74696E672066696C650020EF
:1006A0005800205900205A002045002046002053C1
:1006B00000205000204900204A00205200534420CE
:1006C00072656164206572726F72004572726F723A
:1006D0003A6578706563746564206C696E652000A6
:1006E00020676F742000736B69702000424C4B20B0
:1006F00000737461727400506F77657255700045B5
:10070000787465726E616C20526573657400427214
:100710006F776E206F757420526573657400576132
:10072000746368646F6720526573657400536F6605
:10073000747761726520526573657400556E6B6ED7
:100740006F776E20636F6D6D616E643A00467265FF
:10075000652052414D3A00583A0020583A0020593D
:100760003A00205A3A0020453A00543A0020423AD2
:100770000020403A002054002040002042403A002F
:1007800020524157003A002F00202F00537065651A
:10079000644D756C7469706C793A00466C6F774D76
:1007A000756C7469706C793A0046616E737065653A
:1007B000643A005072696E7465642066696C616D9C
:1007C000656E743A005072696E74696E6720746960
:1007D0006D653A006D200020646179732000206807
:1007E0006F7572732000206D696E00496E76616CC2
:1007F000696420617263002C002000593A005A3A63
:100800000045303A0045313A004D53312C4D5332BA
:100810002050696E7300536574206F757470757421
:100820003A200047657420496E7075743A200020A4
:10083000746F200020697320004820004C2000784D
:100840005F6D696E3A00785F6D61783A00795F6D2F
:10085000696E3A00795F6D61783A007A5F6D696E12
:100860003A007A5F6D61783A007A325F6D696E6D39
:1008700061783A004A65726B3A00205A4A65726B99
:100880003A00206C696E6561722073746570733A0A
:10089000002071756164726174696320737465709E
:1008A000733A002C2073706565643D0045455052D5
:1008B0004F4D2075706461746564006C696E65618C
:1008C00072204C3A00207175616472617469632012
:1008D0004B3A0046696C616D656E7420736C69708B
:1008E00070696E67002F2F20616374696F6E3A70B4
:1008F00061757365002F2F20616374696F6E3A72A2
:100900006573756D65004D6561737572656D656EB6
:10091000742072657365742E004D65617375726520
:100920002F64656C74612028537465707329203DB1
:10093000004D6561737572652F64656C7461203D4F
:10094000004D65617375726564206F726967696EC9
:10095000207365742E204D6561737572656D656ECB
:10096000742072657365742E004F726967696E201A
:100970006D6561737572656D656E742063616E6E11
:100980006F74206265207365742E20205573652076
:100990006F6E6C79205A2D43617274657369616E54
:1009A0002028737472616967687420757020616EA5
:1009B0006420646F776E29206D6F76656D656E7447
:1009C0007320616E642074727920616761696E2E94
:1009D00000496E76616C69642064656C74612063A3
:1009E0006F6F7264696E617465202D206D6F76651E
:1009F0002069676E6F726564004C6576656C696E20
:100A0000672063616C633A00546F77657220313AF6
:100A100000546F77657220323A00546F7765722008
:100A2000333A00416C706861204128323130293AF4
:100A300000416C706861204228333330293A00410C
:100A40006C7068612043283930293A0044656C7421
:100A5000612052616469757320412830293A00444D
:100A6000656C746120526164697573204228302975
:100A70003A0044656C746120526164697573204367
:100A80002830293A004E6F206D6F766520696E2000
:100A900064656C7461207365676D656E7420776939
:100AA0007468203E2031207365676D656E742E205A
:100AB000546869732073686F756C64206E65766521
:100AC000722068617070656E20616E64206D61795E
:100AD00020636175736520612070726F626C656D53
:100AE00021005461726765744578747200546172B4
:100AF0006765744265643A00504944204175746FDB
:100B000074756E652073746172740020626961731C
:100B10003A200020643A2000206D696E3A200020BF
:100B20006D61783A2000204B753A20002054753AC8
:100B3000200020436C617373696320504944002096
:100B40004B703A2000204B693A2000204B643A2039
:100B500000504944204175746F74756E652066615C
:100B6000696C6564212054656D706572617475727D
:100B70006520746F2068696768005049442041759A
:100B8000746F74756E65206661696C65642120748C
:100B9000696D656F757400504944204175746F74B8
:100BA000756E652066696E697368656420212050E2
:100BB0006C61636520746865204B702C204B692044
:100BC000616E64204B6420636F6E7374616E747326
:100BD00020696E2074686520436F6E666967757260
:100BE0006174696F6E2E68206F7220454550524FB8
:100BF0004D004D54454D503A006865617465642060
:100C000062656400657874727564657220003A20CC
:100C100074656D702073656E736F722064656665B0
:100C20006374003A20776F726B696E670050726967
:100C30006E7465722073657420696E746F206472BF
:100C4000792072756E206D6F646520756E74696CA5
:100C5000207265737461727421005A2D70726F6214
:100C6000653A005A2D70726F626520617665726117
:100C70006765206865696768743A005265736574D2
:100C8000205A20686569676874005A2D70726F6217
:100C9000652073746174653A000000486974207AB5
:100CA0002D70726F6265004175746F6C6576656C4E
:100CB000206D617472697820726573657400417586
:100CC000746F6C6576656C696E6720656E61626CC9
:100CD0006564004175746F6C6576656C696E67203C
:100CE00064697361626C6564005472616E73666FEF
:100CF000726D6174696F6E206D61747269783A000B
:100D00005A2D70726F6265206661696C6564005A65
:100D10002D70726F6265206D61783A005072696E55
:100D2000746572206865696768743A0077616974F0
:100D300000436F6174696E6720746869636B6E65E8
:100D40007373205B6D6D5D005A2D70726F6265204C
:100D5000686569676874205B6D6D5D004D61782E14
:100D6000207A2D70726F6265202D20626564206488
:100D70006973742E205B6D6D5D005A2D70726F6209
:100D800065206F66667365742078205B6D6D5D000D
:100D90005A2D70726F6265206F6666736574207974
:100DA000205B6D6D5D005A2D70726F6265207370EF
:100DB000656564205B6D6D2F735D005A2D70726FD9
:100DC000626520782D792D7370656564205B6D6D8B
:100DD0002F735D005A2D70726F6265205831205B51
:100DE0006D6D5D005A2D70726F6265205931205B08
:100DF0006D6D5D005A2D70726F6265205832205BF8
:100E00006D6D5D005A2D70726F6265205932205BE6
:100E10006D6D5D005A2D70726F6265205833205BD6
:100E20006D6D5D005A2D70726F6265205933205BC5
:100E30006D6D5D005A2D70726F62652062656E6423
:100E4000696E6720636F7272656374696F6E2041AB
:100E5000205B6D6D5D005A2D70726F62652062655A
:100E60006E64696E6720636F7272656374696F6E1A
:100E70002042205B6D6D5D005A2D70726F6265209F
:100E800062656E64696E6720636F72726563746910
:100E90006F6E2043205B6D6D5D00436F6E6669670A
:100EA00075726174696F6E2073746F7265642074FB
:100EB0006F20454550524F4D2E00436F6E66696757
:100EC00075726174696F6E206C6F61646564206611
:100ED000726F6D20454550524F4D2E00436F6E6628
:100EE000696775726174696F6E20726573657420CD
:100EF000746F2064656661756C74732E0050726F38
:100F0000746F636F6C2076657273696F6E206368AF
:100F1000616E6765642C20757067726164696E67C5
:100F2000004550523A3020004550523A3120004599
:100F300050523A3220004550523A332000426175F7
:100F40006472617465004C616E6775616765004627
:100F5000696C616D656E74207072696E7465642071
:100F60005B6D5D005072696E7465722061637469B7
:100F70007665205B735D004D61782E20696E61633C
:100F8000746976652074696D65205B6D732C303DE6
:100F90006F66665D0053746F702073746570706562
:100FA0007220616674657220696E61637469766926
:100FB0007479205B6D732C303D6F66665D00582040
:100FC0006D696E20706F73205B6D6D5D0059206DD3
:100FD000696E20706F73205B6D6D5D005A206D69C6
:100FE0006E20706F73205B6D6D5D0058206D6178B1
:100FF000206C656E677468205B6D6D5D0059206DB7
:101000006178206C656E677468205B6D6D5D005A59
:10101000206D6178206C656E677468205B6D6D5D16
:101020000058206261636B6C617368205B6D6D5D5D
:101030000059206261636B6C617368205B6D6D5D4C
:10104000005A206261636B6C617368205B6D6D5D3B
:10105000004D61782E206A65726B205B6D6D2F7379
:101060005D00416363656C65726174696F6E2066D3
:101070006163746F7220617420746F70205B252C23
:101080003130303D6C696B6520626F74746F6D5DDB
:1010900000416363656C65726174696F6E205B6D9E
:1010A0006D2F735E325D0054726176656C206163F2
:1010B00063656C65726174696F6E205B6D6D2F7313
:1010C0005E325D00537465707320706572206D6DC3
:1010D000004D61782E206665656472617465205BE1
:1010E0006D6D2F735D00486F6D696E672066656575
:1010F0006472617465205B6D6D2F735D004469617E
:10110000676F6E616C20726F64206C656E677468C7
:10111000205B6D6D5D00486F72697A6F6E74616CF3
:1011200020726F642072616469757320617420306D
:101130002C30205B6D6D5D005365676D656E74735B
:101140002F7320666F72207072696E74696E67000B
:101150005365676D656E74732F7320666F722074AC
:10116000726176656C00546F776572205820656EE9
:101170006473746F70206F6666736574205B73743C
:101180006570735D00546F776572205920656E64D9
:1011900073746F70206F6666736574205B7374651B
:1011A00070735D00546F776572205A20656E6473AA
:1011B000746F70206F6666736574205B73746570FE
:1011C000735D004D6178207072696E7461626C6548
:1011D00020726164697573205B6D6D5D00436F7291
:1011E000722E20646961676F6E616C2041205B6DB7
:1011F0006D5D00436F72722E20646961676F6E616E
:101200006C2042205B6D6D5D00436F72722E206416
:101210006961676F6E616C2043205B6D6D5D004F8F
:101220005053206F7065726174696F6E206D6F64CA
:1012300065205B303D4F66662C313D436C617373B6
:1012400069632C323D466173745D004F5053206DCD
:101250006F766520616674657220782520726574EA
:1012600072616374205B255D004F5053206D696E81
:101270002E2064697374616E636520666F722066E8
:10128000696C2E2072657472616374696F6E205B85
:101290006D6D5D004F5053207265747261637469A7
:1012A0006F6E206C656E677468205B6D6D5D004FBE
:1012B00050532072657472616374696F6E2062614D
:1012C000636B6C617368205B6D6D5D0042656420CB
:1012D00048656174204D616E61676572205B302DD9
:1012E000335D00426564205049442064726976652C
:1012F000206D617800426564205049442064726921
:101300007665206D696E0042656420504944205026
:101310002D6761696E004265642050494420492D63
:101320006761696E004265642050494420442D671E
:1013300061696E0042656420504944206D617820E7
:1013400076616C7565205B302D3235355D007374C8
:1013500065707320706572206D6D006D61782E2050
:101360006665656472617465205B6D6D2F735D00E9
:101370007374617274206665656472617465205B64
:101380006D6D2F735D00616363656C657261746977
:101390006F6E205B6D6D2F735E325D0068656174EA
:1013A000206D616E61676572205B302D335D00508A
:1013B0004944206472697665206D61780050494423
:1013C000206472697665206D696E00504944205032
:1013D0002D6761696E2F646561642D74696D6500A8
:1013E00048656174657220646561642D74696D651A
:1013F000006E6120666F7220646561642074696D9F
:1014000065206374726C0050494420492D676169FE
:101410006E0050494420442D6761696E0050494474
:10142000206D61782076616C7565205B302D3235DA
:10143000355D00582D6F6666736574205B73746547
:1014400070735D00592D6F6666736574205B7374ED
:101450006570735D005A2D6F6666736574205B73EB
:10146000746570735D0074656D702E2073746162B5
:10147000696C697A652074696D65205B735D0074C1
:10148000656D702E20666F72207265747261637470
:10149000696F6E207768656E2068656174696E6734
:1014A000205B435D0064697374616E636520746FD3
:1014B0002072657472616374207768656E20686558
:1014C0006174696E67205B6D6D5D0065787472751F
:1014D00064657220636F6F6C6572207370656564FC
:1014E000205B302D3235355D00616476616E636559
:1014F000204B205B303D6F66665D00616476616EF7
:101500006365204C205B303D6F66665D0053442070
:10151000696E6974206661696C006572726F722011
:1015200077726974696E6720746F2066696C6500F4
:10153000426567696E2066696C65206C697374002A
:10154000456E642066696C65206C69737400466939
:101550006C65206F70656E65643A002053697A652A
:101560003A0046696C652073656C65637465640058
:1015700066696C652E6F70656E206661696C656466
:10158000005344207072696E74696E6720627974CA
:101590006520004E6F74205344207072696E746928
:1015A0006E67006F70656E206661696C65642C20E3
:1015B00046696C653A200057726974696E672074D9
:1015C0006F2066696C653A2000446F6E6520736118
:1015D00076696E672066696C652E0046696C6520C9
:1015E00064656C657465640044656C6574696F6EF0
:1015F000206661696C6564004469726563746F722A
:101600007920637265617465640043726561746911
:101610006F6E206661696C65640053442065727268
:101620006F72436F64653A00486561746572206447
:1016300065636F75706C6564004F6E6520686561E9
:10164000746572207365656D73206465636F757072
:101650006C65642066726F6D20746865726D697365
:10166000746F72202D2064697361626C696E6720EB
:10167000616C6C20666F72207361666574792100FD
:10168000436F6E6669673A00457874722E000706EC
:101690001C151C141E00002243141F1F131E178E3E
:1016A00017E2175218A218000000001A19A219AE6A
:1016B0001AFE1A7A1BF61B206465672E2043002051
:1016C0006D6561737572656420004572726F723A60
:1016D000436F756C64206E6F7420686F6C64207447
:1016E000656D70657261747572652000206D7300A0
:1016F00020616674657220004572726F723A54659B
:101700006D702E2072616973656420746F20736C34
:101710006F772E2052697365203D20000000000085
:10172000A00F5C006009690010097900C0088C00F6
:101730007008A2002008BD00D007DE008007050168
:1017400030073401E0066D019006B2014006070241
:10175000F0056D02A005E80250057B0300052B048F
:10176000B004F8046004EB06C003350920037F0BC6
:101770008002650DE001B00E40011D0FF000480F22
:10178000C8006C0FA000ED0F60FFFE0F48FE0400C4
:10179000801AD8009808AC01200780025006540334
:1017A000C80528045805FC040005D005B004A406AB
:1017B0006804780728044C08E8032009B003F409FA
:1017C0007003C80A38039C0BF802700CB002440D79
:1017D0006802180E0802EC0E8801C00F8800F00F96
:1017E00000000400001B540060096400100974002C
:1017F000C008840070089C002008B800D007D800FA
:101800008007000130072C01E00668019006AC015A
:1018100040060002F0056802A005E00250057403CE
:1018200000052404B004F0046004DC051004E406A0
:10183000C0030408700330092003780B8002600D98
:10184000E001A80E4001680FA000C00F0000E80FE3
:1018500060FF0400700DD8004804AC0158038002FA
:10186000D8025403800228043802FC040002D00588
:10187000C801A4069801780770014C0848012009A6
:101880001801F409F000C80AC8009C0BA000700CF5
:101890007000440D3800180E0000EC0EA8FFC00FB9
:1018A000E8FE0400304D900098101C01900CA80137
:1018B000A80A34027809C00298084C03E807D80344
:1018C00060076404E806F00480067C05200608062C
:1018D000C8059406780520073005AC07E8043808E9
:1018E000A804C408680450092804DC09F003680A45
:1018F000B003F40A7003800B30030C0CF002980C58
:10190000B002240D6802B00D18023C0EB801C80EDA
:101910004801540FA800E00F58FF0000401F450089
:1019200060094F0010095C00C0086B0070087D0062
:1019300020089200D007AC008007CC003007DE0002
:10194000E006230190065E014006A601F005FF01B6
:10195000A0056D025005F30200059603B0045A0479
:101960006004400510044806C0036E077003A80811
:101970002003EB09D002230B8002410C3002390D09
:10198000E001040E9001A20E4001170FF000690F54
:10199000A000A20F5000C60F0000DD0FB0FFEB0F3C
:1019A00060FF0400681D4C00500B94005809DC00D7
:1019B00050082401A8076C012807B401C006FC01E7
:1019C0007006440228068C02F005D402B8051C03F8
:1019D000880564035805AC033005F40310053C0486
:1019E000E8048404C804CC04A804140590045C052D
:1019F0007004A4055804EC053804340620047C0661
:101A00000804C406F0030C07D8035407C8039C0756
:101A1000B003E40798032C08800374087003BC0823
:101A20005803040948034C09300394091803DC09DE
:101A30000803240AF0026C0AE002B40AC802FC0A95
:101A4000B002440BA0028C0B8802D40B70021C0C59
:101A50005802640C4002AC0C2802F40C10023C0D3D
:101A6000F001840DD801CC0DB801140E98015C0E64
:101A70007001A40E4801EC0E1801340FD8007C0F41
:101A80008800C40F0800FC0F0000000000000000E8
:101A90000000000000000000000000000000000046
:101AA0000000000000000000000000000000040032
:101AB0000016D800C006AC0178058002C0045403AB
:101AC00048042804E803FC049803D0055003A40646
:101AD00018037807D8024C08A80220097002F409FC
:101AE0003802C80A08029C0BD001700C9001440D0A
:101AF0005001180EF800EC0E8800C00F0000040022
:101B0000401D900060091C01B007A801D0063402F6
:101B10003806C002C8054C036805D80318056404DC
:101B2000D804F00498047C05600408063004940688
:101B300000042007D003AC07A80338088003C408BA
:101B4000580350093003DC090803680AE002F40A6C
:101B5000B802800B88020C0C6002980C3002240D35
:101B6000F801B00DC0013C0E8001C80E3001540FC9
:101B7000B800B40F2800E00F00000400081D90001A
:101B800058091C01B007A801C80634023006C0027B
:101B9000C0054C036805D80318056404D004F0049C
:101BA00098047C05600408063004940600042007AD
:101BB000D003AC07A80338088003C40858035009B1
:101BC0003003DC090803680AD802F40AB002800B6B
:101BD00088020C0C6002980C3002240DF801B00D44
:101BE000C0013C0E8001C80E3001540FB800B40F84
:101BF0002800E00F0000000000008C030800AD0387
:101C0000D00CD603A000F703F000180440013804FC
:101C100090015904E0017A0430029A048002CB2B2F
:101C2000D002FC0470032605C0038606300797091E
:101C3000A00F750D201C520E401F1F0F6022FF0FBA
:101C4000803E0000000000000000000000000000D6
:101C50000000000000000000000000000000000084
:101C60000000000000000000000000000000000074
:101C700000005344206572726F7220666978656453
:101C8000005344206572726F7220646964206E6F25
:101C900074207265636F766572210053442052652B
:101CA0006164204572726F720042696E6172793AA6
:101CB00000436F6D6D616E6442756666657200000B
:101CC00000000000000000000000000000000024F0
:101CD000F403D950C38EB1C2A23D96828B358212D5
:101CE0007AE372816CCB66A861015DC758EB5461E1
:101CF00051204E1E4B5648C14559431A41013F09D8
:101D00003D2F3B7139CD374036C93465331432D459
:101D100030A32F802E6B2D632C672B752A8E29B054
:101D200028DC2710274B268F25D9242B248223E05B
:101D3000224322AC211A218D200420801F001F8401
:101D40001E0C1E971D261DB81C4E1CE61B821B2058
:101D50001BC11A641A0A1AB2195D190A19B9186A4C
:101D6000181C18D11788174017FA16B516731631B4
:101D700016F115B31576153A150015C7148F1458BA
:101D8000142214EE13BA13881356132513F612C730
:101D90001299126C1240121512EB11C111981170A8
:101DA0001148112111FB10D610B1108D1069104689
:101DB0001024100210E10FC00FA00F800F610F421E
:101DC0000F230F060FE80ECB0EAF0E930E770E5CAF
:101DD0000E410E270E0D0EF30DDA0DC10DA80D905C
:101DE0000D780D600D490D320D1B0D050DEF0CD951
:101DF0000CC30CAE0C990C850C700C5C0C480C35AB
:101E00000C210C0E0CFB0BE80BD60BC40BB20BA079
:101E10000B8E0B7D0B6B0B5A0B4A0B390B290B18D6
:101E20000B080BF80AE90AD90ACA0ABB0AAC0A9DD0
:101E30000A8E0A800A710A630A550A470A390A2C6F
:101E40000A1E0A110A040AF709EA09DD09D009C4C1
:101E500009B709AB099F09920987097B096F0963D3
:101E60000958094C09410936092B09200915090AA5
:101E7000090009F508EB08E008D608CC08C208B844
:101E800008AE08A4089A08900887087D0874086BB3
:101E900008610858084F0846083D0834082C0823F4
:101EA000081A08120809080108F807F007E807E00F
:101EB00007D807D007C807C007B807B007A807A109
:101EC000070000420FA1071605D0030D038B022E59
:101ED00002E801B2018601630145012C01170104EA
:101EE00001F400696E20717565756544656C7461F7
:101EF0004D6F766520746F2063616C63756C6174DF
:101F00006544656C74615375625365676D656E7485
:101F1000732072657475726E73206572726F722EA3
:101F200000207A3A0020793A0020783A004320686D
:101F3000697420666C6F6F720043706F7320782035
:101F4000737175617265200043706F732078207320
:101F500074657073200043706F73207920737175FE
:101F6000617265200043706F73207920737465700F
:101F7000732000422068697420666C6F6F720042A3
:101F8000706F7320782073717561726520004270E4
:101F90006F732078207374657073200042706F73C4
:101FA000207920737175617265200042706F732013
:101FB000792073746570732000412068697420660D
:101FC0006C6F6F720041706F732078207371756150
:101FD0007265200041706F73207820737465707390
:101FE000200041706F7320792073717561726520D4
:101FF0000041706F73207920737465707320006DD9
:102000006F766552656C6174697665446973746155
:102010006E6365496E5374657073202F207175650A
:10202000756544656C74614D6F7665207265747575
:10203000726E73206572726F72004D617854656DB7
:10204000703A004469616D657465723A004163637A
:10205000656C65726174696F6E3A004D617853709A
:102060006565643A004A65726B3A004D6178426575
:102070006454656D703A005072696E74657254797B
:1020800070653A44656C7461005A54726176656C8F
:10209000416363656C3A005954726176656C4163C3
:1020A00063656C3A005854726176656C4163636590
:1020B0006C3A005A5072696E74416363656C3A0001
:1020C000595072696E74416363656C3A005850727E
:1020D000696E74416363656C3A005A53697A653A74
:1020E000005953697A653A005853697A653A005A3B
:1020F0004D61783A00594D61783A00584D61783A0F
:10210000005A4D696E3A00594D696E3A00584D6952
:102110006E3A004A65726B58593A005072696E7493
:102120006C696E6543616368653A00454550524F7E
:102130004D3A004175746F6C6576656C3A005A5083
:10214000726F62653A00436173654C6967687473C6
:102150003A00537570706F72744C6F63616C4669AE
:102160006C616D656E746368616E67653A00537586
:1021700070706F72744731304731313A005A486F8E
:102180006D654469723A0059486F6D654469723AE9
:102190000058486F6D654469723A00536F667477F2
:1021A000617265506F7765725377697463683A003E
:1021B0004C43443A0046616E3A00534443617264B2
:1021C0003A004865617465644265643A004D697817
:1021D000696E6745787472756465723A004E756D04
:1021E00045787472756465723A0042617564726113
:1021F00074653A004E6F2063617365206C6967688F
:1022000074730062736469723A00686F6D65417837
:1022100069732000686F6D655941786973202F20BC
:10222000717565756544656C74614D6F7665207276
:10223000657475726E73206572726F7200686F6D6F
:10224000655841786973202F2071756575654465FF
:102250006C74614D6F76652072657475726E732053
:102260006572726F72004E65656473206C616E6793
:10227000756167652073656C656374696F6E005086
:1022800072696E7465723A3A7365747570200041B4
:1022900075746F726574726163743A006D6F766500
:1022A000546F5265616C202F2071756575654465AA
:1022B0006C74614D6F76652072657475726E7320F3
:1022C0006572726F72006D6F7665546F202F20718A
:1022D0007565756544656C74614D6F7665207265D2
:1022E0007475726E73206572726F72006973506FCD
:1022F000736974696F6E416C6C6F776564200065FB
:102300006E6473746F7073206869743A20000053B0
:1023100044207072696E742073746F7070656420ED
:10232000627920757365722E000000000021104252
:102330002063308440A550C660E770088129914A27
:10234000A16BB18CC1ADD1CEE1EFF13112100273AE
:10235000325222B5529442F772D662399318837B77
:10236000B35AA3BDD39CC3FFF3DEE36224433420FE
:10237000040114E664C774A44485546AA54BB528C7
:10238000850995EEE5CFF5ACC58DD553367226118E
:10239000163006D776F6669556B4465BB77AA71917
:1023A000973887DFF7FEE79DD7BCC7C448E5588656
:1023B00068A7784008611802282338CCC9EDD98E67
:1023C000E9AFF9488969990AA92BB9F55AD44AB7EE
:1023D0007A966A711A500A333A122AFDDBDCCBBFB7
:1023E000FB9EEB799B588B3BBB1AABA66C877CE4BE
:1023F0004CC55C222C033C600C411CAEED8FFDEC07
:10240000CDCDDD2AAD0BBD688D499D977EB66ED5CD
:102410005EF44E133E322E511E700E9FFFBEEFDD56
:10242000DFFCCF1BBF3AAF599F788F8891A981CA33
:10243000B1EBA10CD12DC14EF16FE18010A100C212
:1024400030E3200450254046706760B9839893FBC1
:10245000A3DAB33DC31CD37FE35EF3B1029012F362
:1024600022D2323542145277625672EAB5CBA5A811
:102470009589856EF54FE52CD50DC5E234C324A0B2
:102480001481046674476424540544DBA7FAB799A1
:1024900087B8975FE77EF71DC73CD7D326F2369102
:1024A00006B01657667676154634564CD96DC90E69
:1024B000F92FE9C899E9898AB9ABA9445865480652
:1024C000782768C018E1088238A3287DCB5CDB3F01
:1024D000EB1EFBF98BD89BBBAB9ABB754A545A37A2
:1024E0006A167AF10AD01AB32A923A2EFD0FED6CD1
:1024F000DD4DCDAABD8BADE89DC98D267C076C64F2
:102500005C454CA23C832CE01CC10C1FEF3EFF5DE0
:10251000CF7CDF9BAFBABFD98FF89F176E367E5541
:102520004E745E932EB23ED10EF01E7C3C3E5E2B6E
:102530003D3F2F5B5D3B2C2A225C004E6F20657275
:10254000726F7220666F756E642E0043616E277421
:10255000206F70656E20726F6F742064697265639E
:10256000746F72792E00496E76616C696420666FB3
:10257000726D61742C207265666F726D6174205388
:10258000442E004E6F20636172642C2077726F6E50
:102590006720636869702073656C65637420706977
:1025A0006E2C206F72205350492070726F626C65E0
:1025B0006D3F0043616E2774206163636573732010
:1025C000534420636172642E20446F206E6F742028
:1025D0007265666F726D61742E000000FF0000006E
:1025E00000010100000000FF00000310270200515D
:1025F0002803102702005528010000010059280275
:10260000000008005B2803ED0304006B2803EE03C1
:102610000400732803EF0304007B2803FA0304007B
:10262000832803FB0304008B2803FC030400932886
:1026300002000009009B280200000600AD280200ED
:10264000000900B92852657175657374506175731E
:10265000653A0055495F414354494F4E5F534554D5
:102660005F4D454153555245445F4F524947494E8E
:10267000200055495F414354494F4E5F484F4D45F7
:102680005F5A200055495F414354494F4E5F484FC0
:102690004D455F59200055495F414354494F4E5FB6
:1026A000484F4D455F58200055495F414354494FBD
:1026B0004E5F484F4D45414C4C2000802500004066
:1026C000380000004B00008070000000960000C041
:1026D000DA000000E10000002C010008B201000057
:1026E000C2010000F401000084030090D003000048
:1026F000E803000008070020A1070000100E0040BA
:10270000420F0060E316000000000055495F41439E
:1027100054494F4E5F45504F534954494F4E200046
:1027200055495F414354494F4E5F5A504F534954A6
:10273000494F4E5F46415354200055495F41435431
:10274000494F4E5F59504F534954494F4E5F464190
:102750005354200055495F414354494F4E5F5850F0
:102760004F534954494F4E5F4641535420005549F9
:102770005F414354494F4E5F5A504F534954494F5C
:102780004E200055495F414354494F4E5F59504FC9
:10279000534954494F4E200055495F414354494FD6
:1027A0004E5F58504F534954494F4E20000200008D
:1027B0000900CB28000002DD280000A200E428EB7D
:1027C00028F228F9288200000100002903000400F3
:1027D0002064656320002064656620000000003FDF
:1027E000CDCC4C3D0AD7A33B6F12033A52657065BE
:1027F0007469657220302E39322E35004D6963724E
:102800006F2044656C746100654D6F74696F6E2054
:10281000546563680000401454040E15041C000045
:1028200000040A040000000000001F1F1F1F1F00FB
:1028300000001F1111111F0000040A0A0A0E1F1FB9
:102840000E001C1F11111F0000110A0411040A11AF
:102850001102290B2914291D29262926292F293857
:102860002941294A2953295C2965296E297729801C
:1028700029892992299B29A429AD29B629BF29C8CC
:1028800029D129DA29E329EC29F529FE29072A107B
:102890002A192A222A2B2A342A3D2A2629462A4F57
:1028A0002A582A612A6A2A732A7C2A852A26298E8E
:1028B0002A972AA02AA92AB22A2629462ABB2AC44C
:1028C0002ACD2AD62ADF2AE82AA92A2629F12A2F60
:1028D00029FA2A032B0C2B152B1E2B272B02000069
:1028E0000800302B0000000400402B000000040012
:1028F000482B0000000400502B0000000400582B5F
:10290000602B00000000000000A500000000000097
:102910000000A60000000000000000A7000000006A
:1029200000000000A800000003E80300000A000007
:102930000003F50301024800000003F60302044906
:1029400000000003F70304004A00000002692B02A4
:1029500000C900000003F80301004B00000003F968
:102960000300014C00000003F40301024D000000CD
:1029700000000000005700000000000000005800A8
:1029800000000000000000590000000000000000EE
:102990005A00000000000000005B00000000000082
:1029A00000005C00000000000000005D000000006E
:1029B000000000005E00000000000000005F00005A
:1029C0000000000000006000000000000000006146
:1029D0000000000000000000620000000000000095
:1029E0000063000000000000000064000000000020
:1029F000000000650000000000000000660000000C
:102A000000000000006700000000000000006800F7
:102A1000000000000000006900000000000000004D
:102A20006A00000000000000006B000000000000D1
:102A300000006C00000000000000006D00000000BD
:102A4000000000006E00000003FD030010130000F2
:102A500000041F040000B00000000448040000B19E
:102A600000000003370400001700000003470400C3
:102A7000001800000003380400001A0000000331B1
:102A80000400101B00000003430400101C000000A1
:102A9000046104000024000000046204000025001A
:102AA0000000033A0400002800000002702B000020
:102AB0002300000003440400002E000000021B2637
:102AC00000001E00000002062600001D000000029B
:102AD0002226000020000000020D2600001F00003A
:102AE0000002292600002200000002142600002116
:102AF00000000002302600000B000000023E26000D
:102B0000000E00000002372600000F0000000277D0
:102B10002B00007D00000002FF25000010000000D7
:102B2000027E2B00001100000002852B00000D002A
:102B300026298C2B952B9E2BA72BB02BB92BC22B88
:102B4000CB2BD42BDD2BE62BEF2BF82B012C0A2CD7
:102B5000132C1C2C252C2E2C372C402C492C522C81
:102B60005B2C03A426000000000200000300632C7D
:102B700003F0030400692C0200000800712C02001D
:102B8000000500812C0200000B008B2C0000042D9E
:102B900004000093000000042204200094000000C0
:102BA000042304200097000000042404200098005F
:102BB00000000425042000990000000426042000E1
:102BC0009A000000042F0400009B00000000000099
:102BD0000000EB0000000000000000ED000000001D
:102BE00000000000EE0000000000000000F3000004
:102BF0000000000000005700000000000000005B23
:102C000000000000000000005F0000000000000065
:102C100000F30000000000000000AC000000000015
:102C2000000000AF0000000000000000F400000001
:102C30000000000000F30000000000000000C300DE
:102C400000000000000000F0000000000000000094
:102C5000C40000000000000000F100456E676C69D0
:102C6000736800A12CAA2CB32CBC2CC52CCE2CD75D
:102C70002C2629E02CE92CF22CFB2C042D0D2D16F2
:102C80002D26291F2D282D312D3A2D2629432D4C57
:102C90002D552D5E2D672DB427702D792D822D8B0E
:102CA0002D00000100000000C900000003E803003F
:102CB0000004000000035424020003000000000090
:102CC0000000006F00000000000000007000000025
:102CD0000000000000AB0000000000000000F20057
:102CE000000004520400007E000000031A040800E3
:102CF0007F000000031B04000080000000031C0490
:102D0000000081000000031D040000820000000399
:102D10001E0400008300000003B4040000D2000081
:102D20000003320400003C00000003330400003DB7
:102D300000000003340400003E00000003350400DE
:102D4000003F00000002942D00008A000000029B5A
:102D50002D0000E400000002A22D00003900000058
:102D600002A92D00004E00000002B02D00000F004F
:102D7000000003060400003A0000000307040000FE
:102D80003B00000002B72D0000B500000002BE2D80
:102D90000000BA000200000400C52D02000002007D
:102DA000CD2D0200000400D12D0200000300D92D1A
:102DB0000200001100DF2D0200000500012E0200BC
:102DC000000B000B2E2629212E2A2E332E262960B9
:102DD0002B26293C2E452E4E2E2629572E602E2698
:102DE00029692E722E7B2E842E8D2E962E9F2E8C50
:102DF0002B952B9E2BA72BB02BB92BA82EB12EC217
:102E00002B2629462ABA2EC32ECC2E2629D52EDED5
:102E10002EE72EF02EBB2AC42ACD2AD62ADF2AE896
:102E20002A000004100400008B00000002F92E00AC
:102E3000008400000002002F000087000000040A48
:102E400004000032000000040D0400003600000001
:102E5000040E0400003700000004160400005200B5
:102E600000000413040000560000000429040000C0
:102E70008C000000042C0400008D000000042B04D2
:102E800000008E000000042A0400008F00000004EF
:102E90002E04000090000000044D040000BC00005F
:102EA00000044C040000BB00000004220440009514
:102EB00000000004260440009600000002072F00D6
:102EC0000022000000020E2F00002100000003ACD1
:102ED0000F0000B400000003AD0F0000B6000000BA
:102EE00003AE0F0000B700000003AF0F0000B800F2
:102EF000000003B00F0000B9000320040200152FEA
:102F00000358040200192F03560404001D2F035513
:102F1000040400252F2D2F362F3F2F482F512F5AD5
:102F20002F632F6C2F752F7E2F872F902F0000007F
:102F30000000000085000000000000000086000086
:102F40000000000000008800000000000000008970
:102F500000000000000000006B0000000000000006
:102F6000006C00000000000000006D000000000088
:102F70000000006E00000000000000005F00000084
:102F80000000000000600000000000000000610080
:102F9000000000000000006200AF2F0000000000F1
:102FA0000000000000000000000000000000FFBB67
:102FB00031BE31C231C631CA31CD31D931E231E70A
:102FC00031ED31F531FC310B320F321D3226322F0B
:102FD00032373241324C3255325C3263326A3276A9
:102FE0003282328D329632A232B232B832C432CA12
:102FF00032D632DC32E832F232053318332B333E2C
:10300000334E335E336E337D338C339B33A433B016
:1030100033BC33C833D233DE33EA33F633FF330BFA
:103020003417341D342A34363442344E345A34661C
:1030300034723482348F349E34AD34BC34CB34D5C6
:1030400034E034EC34FB34083513351F3528353281
:10305000353C3546354E35593564356F35783581D3
:10306000358E359B359C35A535B235BF35C035C954
:1030700035D635E335E435ED35FA35073608361102
:10308000361E362B362C36353642364F36503659AC
:10309000366836713681368A369A36A336B336BCF0
:1030A00036CC36D536E536EE36FE360637153722BF
:1030B000372C373637403749375A376A37763784AF
:1030C000379437A037A837B537C237CF37DA37E468
:1030D00037F237FE370B3814381E382B383B38455B
:1030E000384F385C386938753882388F3898389C52
:1030F00038A738B838C438CB38D938E038EE38F586
:1031000038033910391B392C393D394E395F397044
:1031100039803992399D39A939B139BA39C139C89B
:1031200039CF39DD39E739F8390A3A153A213A30D9
:103130003A373A393A3A3A483A593A613A6C3A7631
:103140003A7D3A883A993AA23AAB3AB63AC23AD27A
:103150003ADF3AE93AFA3A0A3B113B1E3B2E3B373B
:103160003B3F3B4B3B5E3B5F3B6A3B6F3B763B866B
:103170003B953BA03BA73BB43BBD3BCE3BDF3BF588
:103180003B0D3C163C1A3C2D3C373C483C593C65B9
:103190003C693C6F3C7D3C813C823C8C3C923C9940
:1031A0003CAC3CBF3CD23CE33CF43C053D183D2BE1
:1031B0003D3E3D4C3D573D643D713D4F6E004F6679
:1031C00066004E2F4100596573004E6F00507269C2
:1031D0006E74696E672E2E2E005072696E74696E61
:1031E000670049646C65004E6F205344002D4552C2
:1031F000524F522D004261636B200100517569638B
:103200006B2073657474696E677300256F65004386
:103210006F6E66696775726174696F6E00506F7367
:103220006974696F6E0045787472756465720053D5
:1032300044206361726400446562756767696E6704
:1032400000486F6D652064656C746100486F6D6542
:1032500020616C6C00486F6D65205800486F6D658B
:10326000205900486F6D65205A005072656865618D
:103270007420504C41005072656865617420414271
:1032800053004C69676874733A256C6F00436F6F25
:103290006C646F776E0053657420746F206F726971
:1032A000670044697361626C652073746570706552
:1032B00072005820706F73005820706F732E206654
:1032C000617374005920706F73005920706F732EF2
:1032D0002066617374005A20706F73005A20706FFB
:1032E000732E206661737400457874722E20706F9F
:1032F00073004265642074656D703A2565622F2500
:10330000456202430054656D702E2031203A2565D8
:10331000302F25453002430054656D702E20322039
:103320003A2565312F25453102430054656D702ED5
:103330002033203A2565322F25453202430054754B
:10334000726E20657874722031206F666600547545
:10335000726E20657874722032206F666600547534
:10336000726E20657874722033206F66660025586F
:10337000302053656C2065787472203100255831F7
:103380002053656C206578747220320025583220F5
:1033900053656C2065787472203300536574204F38
:1033A000726967005072696E7420583A256178001E
:1033B0005072696E7420593A256179005072696EB5
:1033C00074205A3A25617A005072696E743A256108
:1033D0007A004D6F76652058203A256158004D6F70
:1033E00076652059203A256159004D6F7665205A3F
:1033F000203A25615A004D6F76653A25615A004A98
:1034000065726B2020203A25616A005A2D4A657248
:103410006B203A25614A00416363656C0053746F09
:10342000726520454550524F4D004C6F61642045F8
:103430004550524F4D004563686F2020203A256467
:103440006F00496E666F2020203A2564690045723E
:10345000726F7273203A2564650044727920727528
:103460006E3A25646400254F30204F5053206F661C
:103470006600254F31204F505320636C6173736990
:103480006300254F32204F50532066617374005201
:103490006574726163742020203A254F7200426186
:1034A000636B736C2E2020203A254F62004D696EAD
:1034B0002E6469737420203A254F64004D6F766541
:1034C0002061667465723A254F6100416E7469200F
:1034D0006F6F7A65005072696E742066696C650062
:1034E0005061757365207072696E7400436F6E74FD
:1034F000696E7565207072696E7400556E6D6F75BA
:103500006E742063617264004D6F756E7420636128
:1035100072640044656C6574652066696C6500467C
:1035200065656472617465004D617820583A25665E
:1035300078004D617820593A256679004D617820F0
:103540005A3A25667A004D61783A25667A00486FC6
:103550006D6520583A25665800486F6D6520593AC8
:1035600025665900486F6D65205A3A25665A00480D
:103570006F6D653A25665A00583A257830206D6D92
:10358000004D696E20656E64703A257378004D6158
:103590007820656E64703A2573580000593A257892
:1035A00031206D6D004D696E20656E64703A257333
:1035B00079004D617820656E64703A25735900007A
:1035C0005A3A257832206D6D004D696E20656E6423
:1035D000703A25737A004D617820656E64703A25E3
:1035E000735A0000583A257830206D6D004D696E91
:1035F00020656E64703A257378004D617820656EA1
:1036000064703A2573580000593A257831206D6D61
:10361000004D696E20656E64703A257379004D61C6
:103620007820656E64703A25735900005A3A2578FF
:1036300032206D6D004D696E20656E64703A2573A1
:103640007A004D617820656E64703A25735A0000E7
:10365000453A257833206D6D003120636C69636BCA
:10366000203D2031206D6D00583A257830206D6D59
:10367000004D696E3A257378204D61783A2573586C
:1036800000593A257831206D6D004D696E3A2573E9
:1036900079204D61783A257359005A3A25783220BD
:1036A0006D6D004D696E3A25737A204D61783A252B
:1036B000735A00583A257830206D6D004D696E3A86
:1036C000257378204D61783A25735800593A25784A
:1036D00031206D6D004D696E3A257379204D61780A
:1036E0003A257359005A3A257832206D6D004D699C
:1036F0006E3A25737A204D61783A25735A004661F7
:103700006E207370640046616E207370643A2546C3
:1037100073252525005475726E2066616E204F66F4
:1037200066005365742032352525250053657420C5
:10373000353025252500536574203735252525008E
:103740005365742066756C6C005374657070657297
:1037500020696E616374697665004469732E206127
:10376000667465723A20256973005B6D696E5D2031
:10377000303D4F6666004D61782E20696E6163743E
:10378000697665004469732E2061667465723A201B
:10379000256970005B6D696E5D20303D4F66660087
:1037A00047656E6572616C00426175647261746533
:1037B0003A256F630053746570732F4D4D3A25534E
:1037C000650053746172742046523A255866004D64
:1037D00061782046523A25584600416363656C3A49
:1037E00025584100537461622E54696D653A25581D
:1037F0007700416476206C696E3A25586C0041640C
:103800007620717561643A255861004374726C3A90
:103810002558680050494420503A255870004465A6
:10382000616474696D653A25587000436F6E7472F7
:103830006F6C2050574D3A25584D0050494420494F
:103840003A2558690050494420443A2558640044B8
:10385000726976204D696E3A25586D00447269761A
:10386000204D61783A25584D00504944204D6178EB
:103870003A25584400582D4F66667365743A2558AA
:103880007800592D4F66667365743A255879004261
:10389000616E6742616E670050494400416374691C
:1038A0006F6E3A256C610048656174696E672065CA
:1038B000787472756465720048656174696E67201A
:1038C000626564004B696C6C65640053746570706C
:1038D000657220646973626C00436F6E666967008D
:1038E00073746F72656420454550524F4D00436FAD
:1038F0006E666967006C6F6164656420454550526F
:103900004F4D0055706C6F6164696E672E2E2E00EE
:103910004275666665723A256F420020453A256514
:10392000632F25456302437E256F430045313A25C9
:1039300065302F25453002437E256F300045323AF1
:103940002565312F25453102437E256F31004533F2
:103950003A2565322F25453202437E256F320020FD
:10396000423A2565622F25456202437E256F62003B
:10397000537064206D756C2E3A256F6D25252500DA
:10398000466C6F77206D756C2E203A256F66252565
:10399000250053686F77206D6561732E0052657343
:1039A0006574206D6561732E00536574205A3D3037
:1039B000005A2063616C69622E0053657420503197
:1039C0000053657420503200536574205033004317
:1039D000616C63206C6576656C696E67004C766C13
:1039E0002064656C746100576169742074656D7042
:1039F0002E20255854024300576169742072657463
:103A0000722E3A255855206D6D0053442072656D15
:103A10006F76656400534420696E736572746564E3
:103A2000005072696E7465722072656164792E004F
:103A3000206461797320003A00005072696E7469E5
:103A40006E672074696D650046696C616D656E74A2
:103A5000207072696E746564007072696E7465645A
:103A600000415458206F6E2F6F6666004465616494
:103A70002074696D6500536C772042670053746F42
:103A800070205072696E74005A206261627973749A
:103A9000702E3A256F596D6D004368672066696C1A
:103AA00074004368672066696C7400526F742074F8
:103AB0006F206D6F760066696C2075702F646F776C
:103AC0006E00436C69636B207768656E20646F6E6F
:103AD00065004175746F6C766C3A20256C6C0053F0
:103AE0006572763A20256F530049676E204D31305C
:103AF0003620636D642025466900436C69636B2042
:103B0000746F20726568656174006578747275649D
:103B1000005761697420666F722074677400746561
:103B20006D706572617475726573202E2E00457814
:103B30007472206A616D005374616E646279004230
:103B4000656420636F6174696E6700426564206319
:103B50006F6174696E672073657420746F00004E26
:103B60006F20636F6174696E67004264546B004B31
:103B70006170746F6E00426C756520706170657263
:103B8000207461706500477265656E205045542051
:103B90007461706500476C756520737469636B00B0
:103BA000437573746F6D00437573746F6D3A256F51
:103BB000436D6D004C616E6775616765000A202575
:103BC00065302F254530B020583A257830000E203A
:103BD0002565622F254562B020593A257831004687
:103BE0006C6F773AFD20256F662525252020205A09
:103BF0003A257832004D756C3A20256F6D252525C4
:103C000020FD202020453A202578346D004275663D
:103C10003A20256F4200256F7300052565632F2527
:103C2000456302422565422F254562020042256513
:103C3000422F25456202005A3A25783220204275EB
:103C400066203A20256F42004D756C3A20256F6D35
:103C5000202020453A25783400583A2578302059DC
:103C60003A2578310025557400255566206D0025CC
:103C70005566206D207072696E74656400256F73DF
:103C80000000052565632F25456302000525656352
:103C9000020020256F436D6D0054656D702E203439
:103CA000203A2565332F25453302430054656D7056
:103CB0002E2035203A2565342F2545340243005403
:103CC000656D702E2036203A2565352F2545350245
:103CD00043005475726E20657874722E2034206F04
:103CE0006666005475726E20657874722E203520D9
:103CF0006F6666005475726E20657874722E203679
:103D0000206F6666002558332053656C6563742008
:103D1000657874722E2034002558342053656C6504
:103D2000637420657874722E203500255835205331
:103D3000656C65637420657874722E2036002544A6
:103D400030204E6F20636F70696573002544312009
:103D50003120636F707900254432203220636F7008
:103D600069657300254433203320636F7069657380
:103D7000005A2D70726F6265206865696768743AD1
:103D8000257A6800012902290429082910292029F7
:103D900040298029012C022C01260226042608260F
:103DA0001026202640268026402C802C012302232A
:103DB00004230823102320234023802301200220F2
:103DC000042008201020202040208020102C202CAF
:103DD000012F022F042F082F102F202F402F802F6C
:103DE0007EFE7EFD7EFB7EF77EEF7EDF7EBF7E7FEA
:103DF00000010000243E1200020000363E43000392
:103E00000000793E04010309047D3E180203090401
:103E1000973E1603030904AF3E0C0001C102018066
:103E2000360181361201000202000020C016830410
:103E300000010102030109024300020100C032092E
:103E40000400000102020100052400100105240104
:103E50000001042402060524060001070582030868
:103E6000004009040100020A0000000705030240A7
:103E700000000705840240000004030904180354ED
:103E800000650065006E00730079006400750069CC
:103E9000006E006F00000016035500530042002022
:103EA00000530065007200690061006C0000000CA6
:103EB00003310032003300340035000000494E4623
:103EC000494E4954594E414ECDCCCC3D0AD7233CA6
:103ED00017B7D13877CC2B329595E6241FB14F0A0E
:103EE000000020410000C84200401C4620BCBE4CDF
:103EF000CA1B0E5AAEC59D74008E2BA964CDA4F6C4
:103F000011241FBECFEFD0E2DEBFCDBF12E0A0E094
:103F1000B1E0EEE9F6EF01E00BBF02C007900D92B1
:103F2000A836B107D9F71BBE15E1A8E6B2E001C07B
:103F30001D92A331B107E1F71EE3C0E0DFE304C047
:103F40002297FE010E94FFFAC83FD107C9F70E94DD
:103F5000F2F40C944DFB0C940000A0E0B0E0E3EB15
:103F6000FFE10C941CFBEC015B016115710519F07C
:103F7000FB0191838083F9908F2D90E00E9403FBD9
:103F8000892BC9F7FDE2FF1621F4F990EE24E394A2
:103F900005C02BE2F21609F4F990EE248E010150CF
:103FA0001040C8016DEB7EE343E050E00E943C22EC
:103FB000892B01F58E010E5F1F4FC80160EC7EE377
:103FC00045E050E00E943C22892B19F48E01095FE4
:103FD0001F4FA114B10419F0F50111830083E0FC17
:103FE00004C070E090E080E814C070E090E080E8E9
:103FF0006FEF08C1C80165EC7EE343E050E00E942A
:104000003C22892B69F4A114B10429F470E090E0FA
:1040100080EC6FE7F7C02296F501D183C083F6CF1D
:104020008824992440E050E060E070E0EF2DE053F8
:10403000EA30A0F5F2E0EF2A8E2D90E09C01287086
:104040003070E2FE06C0232B79F50894811C911C88
:104050002BC0232B19F0089481089108DB01CA01B9
:1040600012E0880F991FAA1FBB1F1A95D1F7480F9E
:10407000591F6A1F7B1F440F551F661F771F4E0F66
:10408000511D611D711D483929E9520729E962074F
:1040900029E1720748F084E0E82A06C0EE3F31F4D7
:1040A000E3FC39C098E0E92AF990C0CFE53311F07C
:1040B000E53189F529912D3219F4E0E1EE2A05C0A8
:1040C0002B3219F081E090E003C0299182E090E06A
:1040D000E22FE053EA3018F0C81BD90B1CC020E0D7
:1040E00030E0FCE020383F075CF4C901880F991FDD
:1040F000880F991F280F391F220F331F2E0F311DD4
:10410000E991E053EA3068F3E4FE03C0309521956D
:104110003F4F820E931ECE2CDD24E1FE07C0A1147A
:10412000B10421F02197F501D183C083CB01BA01FD
:104130000E941CF87B018C01F3E0CF22DD2423E0F8
:10414000C216D10421F417FB109517F910955701E9
:104150006801C801B70120E030E040E050E00E9473
:104160007CF7882309F44AC097FE0DC02CEDE22E9F
:104170002EE3F22E9094819491089394C0E2D0E0C3
:1041800000E010E012C094EFE92E9EE3F92EF6CF86
:10419000F7012591359145915491C601B5010E94D1
:1041A00069F95B016C018C1A9D0A8C169D0684F7D7
:1041B000D595C7950F5F1F4F0630110529F08CEF7D
:1041C0009FEFE80EF91EF1CFC501D6017C018D01EC
:1041D0008C2D880F8D2D881F8F3F51F0C601B501A2
:1041E00020E030E040E050E00E947CF7882331F48A
:1041F00082E290E090931215809311157E2D9F2DF1
:10420000802F612F272F392F482F562FB901CA0130
:10421000CDB7DEB7ECE00C9438FB2F923F925F9263
:104220006F927F928F929F92AF92BF92CF92DF92C6
:10423000EF92FF920F931F93CF93DF938C011B019B
:10424000EA016115710519F0FB01918380832097C4
:1042500049F0CE010297839728F020E030E040E05B
:1042600050E0F6C0F801A1908F018A2D90E00E94E5
:1042700003FB892BB9F7FDE2AF1631F4F801A190E9
:104280008F015524539407C0FBE2AF1619F4F801CF
:10429000A1908F015524209719F0C031D105C1F4A8
:1042A000F0E3AF1679F4F8018081883711F0883592
:1042B00049F4F801A1800E5F1F4FF2E05F2AC0E1D0
:1042C000D0E006C0209721F480E3A816E9F427C0C7
:1042D000C830D10531F1C930D10524F4C230D1053F
:1042E00031F50CC0CA30D10589F0C031D105F9F4DF
:1042F000C12CD12CE12CB8E0FB2E28C0C12CD12C34
:10430000E12CA0E4FA2E22C0CAE0D0E0FCECCF2ED3
:10431000FCECDF2EFCECEF2EFCE0FF2E17C0C8E01B
:10432000D0E0C12CD12CE12CE0E1FE2E0FC09E018B
:10433000442737FD4095542F60E070E080E090E81E
:104340000E94B4FAC901DA016C017D0120E030E07D
:1043500040E050E060E03E01882477FC8094982C97
:1043600070EDB72EBA0CE9E0EB1570F48A2D81548C
:104370008A3118F499ECB92E06C08A2D81568A31FB
:1043800050F589EAB82EBA0C8B2D90E08C179D075A
:1043900014F56F3FE1F0C216D306E406F506B0F05F
:1043A000CA01B901A40193010E9461FA9B01AC0109
:1043B0002B0D311D411D511D2130F0E03F07F0E074
:1043C0004F07F0E85F0710F461E001C06FEFF801FC
:1043D000A1908F01C5CF2114310481F0662331F003
:1043E00001501040F1011183008308C051FE1AC032
:1043F00002501040F1011183008314C067FF12C006
:1044000050FC05C02FEF3FEF4FEF5FE704C020E007
:1044100030E040E050E882E290E090931215809303
:10442000111516C050FE08C0509540953095219545
:104430003F4F4F4F5F4F0CC057FF0AC082E290E0E2
:1044400090931215809311152FEF3FEF4FEF5FE719
:10445000B901CA01DF91CF911F910F91FF90EF90A9
:10446000DF90CF90BF90AF909F908F907F906F9094
:104470005F903F902F900895FB01DC014150504028
:1044800088F08D9181341CF08B350CF4805E659141
:1044900061341CF06B350CF4605E861B611171F3A6
:1044A000990B0895881BFCCFFB01DC0102C0019031
:1044B0000D9241505040D8F70895FB01DC010D905A
:1044C0000020E9F7119701900D920020E1F708957F
:1044D000FC018191861721F08823D9F79927089547
:1044E0003197CF010895FB01DC018D910190801976
:1044F0000110D9F3990B0895FB01DC0101900D9295
:104500000020E1F70895FB01DC014150504048F0E4
:1045100001900D920020C9F701C01D9241505040FA
:10452000E0F70895FC0181E090E00190061609F49F
:10453000CF010020D1F701970895A0E0B0E0E3EAB1
:10454000F2E20C9420FB7C01EB018A01690109C0B5
:10455000CE012196F6010995F70181937F01015063
:10456000104001151105A1F7CDB7DEB7E8E00C94B6
:104570003CFBBF92CF92DF92EF92FF920F931F937B
:104580007B018C01FB010995B82EC8010196F7014A
:104590000995C82EC8010296F7010995D82EC801C1
:1045A0000396F7010995982F6B2D7C2D8D2D1F916A
:1045B0000F91FF90EF90DF90CF90BF900895DF9222
:1045C000EF92FF920F931F937B018C01FB010995E2
:1045D000D82EC8010196F7010995982F8D2D1F91AE
:1045E0000F91FF90EF90DF900895A0E0B0E0EBEF27
:1045F000F2E20C9420FBEC017B018A01690109C005
:10460000CE012196F70161917F01F60109950150D4
:10461000104001151105A1F7CDB7DEB7E8E00C9405
:104620003CFBBF92CF92DF92EF92FF920F931F93CA
:10463000D52EC62EB72E79018C01642FF90109956C
:10464000C80101966D2DF7010995C80102966C2DE0
:10465000F7010995C80103966B2DF70109951F9184
:104660000F91FF90EF90DF90CF90BF900895DF9271
:10467000EF92FF920F931F93D72E7A018C01FA01CC
:104680000995C80101966D2DF70109951F910F91AC
:10469000FF90EF90DF9008959C01F999FECF32BD15
:1046A00021BDF89A80B508959C01F999FECF1FBAF3
:1046B00032BD21BD60BD0FB6F894FA9AF99A0FBECB
:1046C0000895089560911101709112018091130174
:1046D000909114016817790744F470931401609362
:1046E00013018DE497E00E94F83C0895AF92BF92C9
:1046F000CF92DF92EF92FF920F931F93CF93DF93AE
:10470000EC01893191051CF4C9E1D0E005C0893C78
:10471000910514F0C8ECD0E0D0938610C0938510BA
:10472000E0917202F0917302E458FF4FA080B180D3
:10473000C280D380C601B50120E030E040E050E007
:104740000E947CF79E01442737FD4095542F181690
:104750005CF0CA01B9010E941EF82AE037ED43E27D
:104760005CE30E9469F924C0CA01B9010E941EF8E5
:104770002AE037ED43E25CE30E9469F920E030E093
:1047800040E850E40E9469F97B018C01C601B50143
:10479000A60195010E9469F92BED3FE049E450E440
:1047A0000E9469F99B01AC01C801B7010E9483F71F
:1047B00060934202709343028093440290934502B7
:1047C0008BE997E0BE010E94F83CDF91CF911F91E9
:1047D0000F91FF90EF90DF90CF90BF90AF90089532
:1047E000EF92FF920F931F93CF93DF93EC018931E8
:1047F00091051CF4C9E1D0E006C081E0C53FD807AF
:1048000014F0C4EFD1E0BE01882777FD8095982F82
:104810000E941EF87B018C016091831070918410BE
:10482000882777FD8095982F0E941EF89B01AC0188
:10483000C801B7010E9483F79B01AC0160917F1012
:104840007091801080918110909182100E9469F97E
:1048500060937F10709380108093811090938210EA
:10486000D0938410C09383108CE897E0BE010E941F
:10487000F83CDF91CF911F910F91FF90EF90089539
:104880000E94F96A9C0180911101909112012817F0
:10489000390724F4309312012093110108950E94E6
:1048A00040690895DF93CF9300D000D0CDB7DEB735
:1048B000BC01CE01019644E050E02CE433E20E94BA
:1048C0009D2229813A814B815C81B901CA010F90F7
:1048D0000F900F900F90CF91DF910895EF92FF927C
:1048E0000F931F93DF93CF9300D000D0CDB7DEB7E7
:1048F0007B018C0160930B1070930C1080930D1052
:1049000090930E100E94E79FE982FA820B831C832A
:1049100085E793E0BE016F5F7F4F44E050E024E500
:1049200033E20E94F52286E195E0B801A70123E079
:104930000E942E3E0E94773E282FF999FECF88E6EE
:1049400090E092BD81BDF89A80B5281769F0F99979
:10495000FECF1FBA88E690E092BD81BD20BD0FB6A4
:10496000F894FA9AF99A0FBE0F900F900F900F904B
:10497000CF91DF911F910F91FF90EF900895DF93FA
:10498000CF9300D000D0CDB7DEB760936B1070939B
:104990006C1080936D1090936E100E94E79F409171
:1049A0006B1050916C1060916D1070916E108AE2D6
:1049B00095E023E00E942E3E80916B1090916C1048
:1049C000A0916D10B0916E1089839A83AB83BC83E4
:1049D00085E890E0BE016F5F7F4F44E050E024E542
:1049E00033E20E94F5220E94773E282FF999FECFEC
:1049F00088E690E092BD81BDF89A80B5281769F0ED
:104A0000F999FECF1FBA88E690E092BD81BD20BD26
:104A10000FB6F894FA9AF99A0FBE0F900F900F9074
:104A20000F90CF91DF910895DF93CF9300D000D006
:104A3000CDB7DEB7609373107093741080937510C8
:104A4000909376100E94E79F4091731050917410DC
:104A5000609175107091761085E495E023E00E94D6
:104A60002E3E8091731090917410A0917510B091AA
:104A7000761089839A83AB83BC8389E890E0BE017A
:104A80006F5F7F4F44E050E024E533E20E94F5225F
:104A90000E94773E282FF999FECF88E690E092BDDC
:104AA00081BDF89A80B5281769F0F999FECF1FBA31
:104AB00088E690E092BD81BD20BD0FB6F894FA9AC9
:104AC000F99A0FBE0F900F900F900F90CF91DF913A
:104AD0000895DF93CF9300D000D0CDB7DEB76093B9
:104AE0007B1070937C1080937D1090937E100E94B9
:104AF000E79F40917B1050917C1060917D107091E8
:104B00007E1080E695E023E00E942E3E80917B108F
:104B100090917C10A0917D10B0917E1089839A8332
:104B2000AB83BC838DE890E0BE016F5F7F4F44E0B4
:104B300050E024E533E20E94F5220E94773E282FC0
:104B4000F999FECF88E690E092BD81BDF89A80B5D4
:104B5000281769F0F999FECF1FBA88E690E092BD58
:104B600081BD20BD0FB6F894FA9AF99A0FBE0F9046
:104B70000F900F900F90CF91DF9108956F927F92D9
:104B80008F929F92AF92BF92CF92DF92EF92FF925D
:104B90000F931F9360919D1070919E1080919F10B4
:104BA0009091A0102FE632E143E85AE30E9469F9A0
:104BB0007B018C0181E890E00E9452249B01AC01B2
:104BC000C801B7010E9418F7AB01BC0183EB97E065
:104BD00022E00E94193E84ED97E00E94EF3BE091B5
:104BE000E501F091E601638574858585968520E071
:104BF00030E040E751E40E9465F918160CF474C0E7
:104C00006624772443018DE790E06CE473E20E9410
:104C1000B9227B018C01E60CF71C081D191DC80187
:104C2000B70120E831E541E050E00E94D6FA922E2B
:104C3000832E742E652E622F732F842F952F20E8DC
:104C40003EEA4EEF5FEF0E9461FA5B016C01AE0C31
:104C5000BF1CC01ED11E85EC97E0492D582D672D35
:104C6000762D0E94613DC601B50120E13EE040E0A5
:104C700050E00E94D6FA122F032FF42EE52E87ED76
:104C800097E0422F502F6F2D7E2D0E94613D612FA6
:104C9000702F8F2D9E2D20EF31EF4FEF5FEF0E9491
:104CA00061FAA60EB71EC81ED91EC601B5012CE3B7
:104CB00030E040E050E00E94D6FA8EED97E0BA0175
:104CC000A9010E94613D86EE97E00E94FD3B1F9185
:104CD0000F91FF90EF90DF90CF90BF90AF909F909B
:104CE0008F907F906F9008950FB6F8946091FD14A7
:104CF0007091FE148091FF14909100150FBE2091C9
:104D0000991030919A1040919B1050919C10621B09
:104D1000730B840B950B28EE33E040E050E00E94CB
:104D2000B4FAC901DA013C014D016DCF2F923F92D7
:104D30004F925F926F927F928F929F92AF92BF92AB
:104D4000CF92DF92EF92FF920F931F93DF93CF9357
:104D5000CDB7DEB72C970FB6F894DEBF0FBECDBF30
:104D60009A878987A090AA0FB090AB0FC090AC0F24
:104D7000D090AD0F6090AE0F7090AF0F8090B00FDD
:104D80009090B10F2090B20F3090B30F4090B40FBD
:104D90005090B50FC601B501A60195010E9420FAF9
:104DA000882309F078C01C861B8686017501E8946B
:104DB00017F9C801B7012FEF3FEF4FE75FE70E94F8
:104DC00020FA882351F4C801B7012FEF3FEF4FE7D6
:104DD0005FE70E947CF7181624F081E090E09C8742
:104DE0008B87AB85BC85119709F055C0C401B30111
:104DF000A40193010E9420FA882309F04CC01C866C
:104E00001B8684017301E89417F9C801B7012FEFDD
:104E10003FEF4FE75FE70E9420FA882351F4C80173
:104E2000B7012FEF3FEF4FE75FE70E947CF71816BF
:104E300024F0E1E0F0E0FC87EB878B859C8501970F
:104E400051F5C201B101A20191010E9420FA88230B
:104E500011F51C861B8682017101E89417F9C801BF
:104E6000B7012FEF3FEF4FE75FE70E9420FA88235B
:104E700051F4C801B7012FEF3FEF4FE75FE70E9402
:104E80007CF7181624F0A1E0B0E0BC87AB87EB8577
:104E9000FC85319721F089859A850E94023C2091FA
:104EA000D20F3091D30F4091D40F5091D50F8091F4
:104EB000D60F9091D70FA091D80FB091D90F8D83B5
:104EC0009E83AF83B8878091DA0F9091DB0FA0911A
:104ED000DC0FB091DD0F89839A83AB83BC83809113
:104EE000560F882359F40F2EF0E0EF2EF0E0FF2E3E
:104EF000F0E80F2FFFE31F2FF02D0AC00F2EF0E771
:104F0000EF2EF2E4FF2EF1E20F2FFDE31F2FF02D25
:104F1000C601B5010E9418F7A80197010E9469F91E
:104F2000AB01BC0187E597E022E00E94193E809129
:104F3000560F882359F40F2EF0E0EF2EF0E0FF2EED
:104F4000F0E80F2FFFE31F2FF02D0AC00F2EF0E720
:104F5000EF2EF2E4FF2EF1E20F2FFDE31F2FF02DD5
:104F6000C401B3012D813E814F8158850E9418F7FD
:104F7000A80197010E9469F9AB01BC018EE597E099
:104F800022E00E94193E8091560F882359F40F2E7B
:104F9000F0E0EF2EF0E0FF2EF0E80F2FFFE31F2FE1
:104FA000F02D0AC00F2EF0E7EF2EF2E4FF2EF1E213
:104FB0000F2FFDE31F2FF02DC201B10129813A818E
:104FC0004B815C810E9418F7A80197010E9469F942
:104FD000AB01BC0182E697E023E00E94193E2091DC
:104FE000A60F3091A70F4091A80F5091A90FA09044
:104FF000630FB090640FC090650FD090660F8091E2
:10500000560F882359F40F2EF0E0EF2EF0E0FF2E1C
:10501000F0E80F2FFFE31F2FF02D0AC00F2EF0E74F
:10502000EF2EF2E4FF2EF1E20F2FFDE31F2FF02D04
:10503000CA01B9010E941EF8A60195010E9469F9F2
:10504000A80197010E9469F9AB01BC0186E697E0CF
:1050500024E00E942E3E2C960FB6F894DEBF0FBEC1
:10506000CDBFCF91DF911F910F91FF90EF90DF9017
:10507000CF90BF90AF909F908F907F906F905F90F8
:105080004F903F902F9008951F93182F0E94F98DF5
:1050900080916D028823C9F010926D020E94E05A3F
:1050A00080911501815080931501882349F48091E6
:1050B0006A02882311F00E942E5185E08093150129
:1050C00085EC93E1612F0E9407EB1F91089509C0C1
:1050D0000E94DB6580E00E94442885EC93E10E94F9
:1050E00022CD8091460F882399F70895CF93DF93BF
:1050F00097FD10C0EC018F3F910521F01CF0CFEF20
:10510000D0E002C0009731F08091E10F8860809379
:10511000E10F07C08091E10F877F8093E10FC0E02E
:10512000D0E0662311F00E9467288091600390E030
:10513000C817D907D1F089EA97E0BE010E94F83C70
:1051400080916802882389F420916003822F90E087
:105150008C179D0754F4C535D1053CF4222311F07A
:1051600082E001C088E080936802C0936003DF9111
:10517000CF910895EF92FF920F931F93DF93CF93F8
:105180000F92CDB7DEB78DE0898385E0E82E85E10B
:10519000F82EC7018E010F5F1F4FB80141E050E0AC
:1051A0000E948DF58AE08983C701B80141E050E093
:1051B0000E948DF50F90CF91DF911F910F91FF907D
:1051C000EF9008951F93182FE0917202F0917302EF
:1051D00040A951A962A973A98AE697E022E00E943A
:1051E000193EE0917202F091730244A955A966A993
:1051F00077A989E897E020E00E94193E0E940E4EB0
:10520000AB01BC018DE697E022E00E94193E40917F
:10521000A3015091A4016091A5017091A60189E8B4
:1052200097E020E00E94193E112391F080E897E07A
:1052300061E070E00E94213D6CEF7FE080919B0176
:1052400090919C01681B790B85E897E00E94213DB5
:10525000E0919801F0E0E35AFC4F60818BE797E022
:1052600070E00E94213DE0911601EF3F29F4E091AA
:105270007202F0917302E081F0E0E35AFC4F60812A
:1052800081E797E070E00E94213D0E94BA281F91BB
:105290000895AF92BF92CF92DF92EF92FF920F9359
:1052A0001F93CF93DF93EC018E819F818737910508
:1052B00009F476C58837910508F09DC082359105BF
:1052C00009F41DC28335910508F048C08B31910562
:1052D00009F482C18C319105E0F48731910509F41C
:1052E00043C18831910568F48531910509F432C1D3
:1052F0008631910508F033C1449711F00C94FA31CE
:1053000024C18931910509F447C14A9708F04AC17F
:105310003EC18032910509F483C18132910570F458
:105320008D31910511F40C9415328D31910508F4ED
:1053300058C14E9711F00C94FA3160C18A32910530
:1053400009F480C18A32910510F40C94FA31803549
:10535000910510F40C94FA310C9415328A369105AB
:1053600009F4AEC48B36910518F58C35910509F416
:105370000AC28D35910570F48435910509F4C6C1D2
:105380008435910508F4BEC18535910511F00C9462
:10539000FA31D9C18836910509F483C2893691055D
:1053A00008F032C38336910511F00C94FA312DC206
:1053B0008237910509F4DDC48337910570F48D3689
:1053C000910509F42CC38F36910509F498C48B36E6
:1053D000910511F00C94FA3188C48437910509F4D1
:1053E00062C48437910508F4BDC48537910511F076
:1053F0000C94FA31C3C421E08931920709F4D0C674
:1054000031E08A31930708F048C08C3C910509F4DB
:10541000CEC58D3C910500F5883C910509F4D4C4B6
:10542000893C910570F48C38910509F4AEC28E3B2D
:10543000910509F45AC38837910511F00C94FA319B
:10544000B8C48A3C910509F460C5288139818B3C38
:10545000910508F099C51BC5813D910509F41BC64E
:10546000823D910568F48E3C910509F4E1C58E3CBE
:10547000910508F4DAC58F3C910509F0BBC7DCC57E
:105480008D3D910509F435C68B3F910509F442C65F
:105490008C3D910509F0AEC71BC641E082399407E7
:1054A00009F40CC751E08339950738F521E08336BC
:1054B000920709F4E5C631E08436930778F441E0B9
:1054C0008F32940709F494C651E08E35950709F49C
:1054D000D2C68E52914009F08DC767C631E080393F
:1054E000930709F4E5C641E08139940708F0E3C663
:1054F0008856914009F07EC7D8C622E089359207C8
:1055000009F426C732E08A35930778F441E0853FF5
:10551000940709F40BC751E0863F950709F415C7B6
:10552000845F914009F066C7F9C632E08B35930776
:1055300009F45CC742E08B35940708F41AC78B580E
:105540009340049708F056C770C789E291E10E9422
:10555000A7AA6BC789E291E10E9490AF66C789E272
:1055600091E10E94ECA861C78881998197FF5DC78E
:1055700089E291E160E00E943EBBCE5ADF4F688134
:10558000798189E291E140E00E9410AA4EC789E248
:1055900091E10E9404A949C789E291E160E00E947B
:1055A00071AE43C78881998192FF3FC74E8D5F8D51
:1055B00068A179A180919311882309F436C740939B
:1055C0008A1150938B1160938C1170938D1189E621
:1055D00091E10E94CFB829C789E291E10E94EBA92D
:1055E00024C78881998197FF20C7CE5ADF4F6881F1
:1055F000798189E291E10E94A9A917C788819981DF
:1056000097FF13C789E291E160E00E943EBBCE5A4A
:10561000DF4F6881798189E291E10E945AA905C72B
:105620008881998197FF01C789E291E160E00E943A
:105630003EBBCE5ADF4F6881798189E291E10E94B9
:1056400030A9F3C64881598153FFEFC6EAA0FBA0F9
:1056500020E030E0F901EC5BFD4FE4918E2F90E00B
:105660008E159F0509F446C02F5F3F4F2B31310542
:1056700089F7F7FC3FC052FF2AC08E8D9F8DA8A1ED
:10568000B9A18F3F9105A105B10509F0D8F48E2D80
:105690000E9404EF9E8D2F8DEE2DF0E0092E0E94CA
:1056A00073EF8E2D692F722F0E94F6F186E198E03C
:1056B000B7010E94213D6E8D7F8D8FE298E00E94A0
:1056C000F83CB3C68CE393E00E94023CAEC68E2D3C
:1056D0000E943DEF8FE298E0B7010E94213DEE2D40
:1056E000F0E00E946FF084E398E06E2F70E00E947B
:1056F000F83C9BC68AE093E00E94023C96C610925A
:10570000990F93C681E08093990F8FC68881998104
:1057100092FF13C06E8D7F8D88A199A128EE33E092
:1057200040E050E00E9461FA6093EA017093EB015F
:105730008093EC019093ED0178C60E94672881E088
:105740000E94299F72C68881998192FF13C06E8D35
:105750007F8D88A199A128EE33E040E050E00E94BF
:1057600061FA6093590370935A0380935B0390939B
:105770005C035BC61092590310925A0310925B03AC
:1057800010925C0352C6888183FF0CC08A859B857A
:10579000AC85BD858093F4019093F501A093F6014B
:1057A000B093F701888184FF0CC08E859F85A889FE
:1057B000B9898093F8019093F901A093FA01B0930D
:1057C000FB01888185FF0CC08A899B89AC89BD89D2
:1057D0008093FC019093FD01A093FE01B093FF0123
:1057E0000E94E79F888186FF20C6E0917202F091B7
:1057F00073028E899F89A88DB98D85879687A78723
:10580000B08B80810E94305910C60881198112FD29
:1058100005C060E177E280E090E00AC06E8D7F8D88
:1058200088A199A128EE33E040E050E00E9461FA9F
:1058300003FD779A04FD769A05FD479A0FB6F89412
:10584000E090FD14F090FE140091FF1410910015EB
:105850000FBEE60EF71E081F191F02C00E947D9F93
:105860000FB6F8948091FD149091FE14A091FF144E
:10587000B09100150FBEA8019701281B390B4A0BE8
:105880005B0BDA01C901805A9648A140B04030F361
:10589000288123FD779824FD769825FFC6C5479873
:1058A000C4C50E94EC50882309F0BFC50FB6F89418
:1058B0008091FD149091FE14A091FF14B0910015F9
:1058C0000FBE8093550390935603A0935703B09354
:1058D00058038091400283FDA8C58881998193FD7A
:1058E0000AC092FF0AC08E8D9F8DA8A1B9A1009712
:1058F000A105B10511F40E9467282881398132FF82
:1059000094C531FF83C5CC5ADF4F8881C455D04040
:10591000882309F07BC5EE8CFF8C08A119A130FD0E
:1059200002C0DD240FC0DD246A8D7B8D8C8D9D8DA2
:1059300020E030E040E050E00E9465F9181614F4D1
:10594000DD24D394C801B7010E941EF840E02D2D3C
:1059500000E00E94005669C5DD246A8D7B8D8C8D28
:105960009D8D20E030E040E050E00E9465F918167F
:1059700014F4DD24D394C801B7010E941EF84C2D05
:105980002D2D00E00E94005650C50E94EC50882347
:1059900009F04BC50FB6F8948091FD149091FE1458
:1059A000A091FF14B09100150FBE80935503909302
:1059B0005603A0935703B09358038091400283FD90
:1059C00034C58881998192FF30C5EE8CFF8C08A187
:1059D00019A190FD02C0DD240FC0DD246A8D7B8DEE
:1059E0008C8D9D8D20E030E040E050E00E9465F914
:1059F000181614F4DD24D394C801B7010E941EF8D0
:105A00004D2D0E94325111C58881998123E09695D0
:105A100087952A95E1F781700E94E22806C50E94C9
:105A2000EC50882309F001C50FB6F8948091FD145D
:105A30009091FE14A091FF14B09100150FBE8093B9
:105A4000550390935603A0935703B0935803809146
:105A5000400283FDEAC40E946728E0917202F0913F
:105A600073022881398131FF09C0CC5ADF4F888108
:105A7000C455D040882311F4E7E1F1E032FF21C0A2
:105A8000EE8CFF8C08A119A1C08030FD02C0DD247E
:105A90000FC0DD246A8D7B8D8C8D9D8D20E030E0E4
:105AA00040E050E00E9465F9181614F4DD24D39408
:105AB000C801B7010E941EF84C2D2D2D01E00E9457
:105AC00000560FB6F8948091FD149091FE14A091A9
:105AD000FF14B09100150FBE8093550390935603A9
